{
  "_format": "hh-sol-artifact-1",
  "contractName": "EliteAntArb",
  "sourceName": "contracts/EliteAntArb.sol",
  "abi": [
    {
      "inputs": [
        {
          "internalType": "address",
          "name": "_aavePool",
          "type": "address"
        },
        {
          "internalType": "address",
          "name": "_profitWallet",
          "type": "address"
        },
        {
          "internalType": "uint256",
          "name": "_minProfitWei",
          "type": "uint256"
        }
      ],
      "stateMutability": "nonpayable",
      "type": "constructor"
    },
    {
      "inputs": [],
      "name": "ContractPaused",
      "type": "error"
    },
    {
      "inputs": [],
      "name": "InsufficientRepayment",
      "type": "error"
    },
    {
      "inputs": [],
      "name": "NotAavePool",
      "type": "error"
    },
    {
      "inputs": [],
      "name": "NotOwner",
      "type": "error"
    },
    {
      "inputs": [
        {
          "internalType": "uint256",
          "name": "actual",
          "type": "uint256"
        },
        {
          "internalType": "uint256",
          "name": "minimum",
          "type": "uint256"
        }
      ],
      "name": "ProfitBelowMinimum",
      "type": "error"
    },
    {
      "inputs": [],
      "name": "ZeroAddress",
      "type": "error"
    },
    {
      "anonymous": false,
      "inputs": [
        {
          "indexed": true,
          "internalType": "address",
          "name": "loanToken",
          "type": "address"
        },
        {
          "indexed": false,
          "internalType": "uint256",
          "name": "loanAmount",
          "type": "uint256"
        },
        {
          "indexed": false,
          "internalType": "uint256",
          "name": "profit",
          "type": "uint256"
        },
        {
          "indexed": false,
          "internalType": "address",
          "name": "buyDex",
          "type": "address"
        },
        {
          "indexed": false,
          "internalType": "address",
          "name": "sellDex",
          "type": "address"
        }
      ],
      "name": "ArbExecuted",
      "type": "event"
    },
    {
      "anonymous": false,
      "inputs": [
        {
          "indexed": false,
          "internalType": "bool",
          "name": "state",
          "type": "bool"
        }
      ],
      "name": "Paused",
      "type": "event"
    },
    {
      "anonymous": false,
      "inputs": [
        {
          "indexed": false,
          "internalType": "address",
          "name": "token",
          "type": "address"
        },
        {
          "indexed": false,
          "internalType": "uint256",
          "name": "amount",
          "type": "uint256"
        },
        {
          "indexed": false,
          "internalType": "address",
          "name": "to",
          "type": "address"
        }
      ],
      "name": "ProfitWithdrawn",
      "type": "event"
    },
    {
      "inputs": [],
      "name": "aavePool",
      "outputs": [
        {
          "internalType": "address",
          "name": "",
          "type": "address"
        }
      ],
      "stateMutability": "view",
      "type": "function"
    },
    {
      "inputs": [
        {
          "internalType": "address",
          "name": "loanToken",
          "type": "address"
        },
        {
          "internalType": "uint256",
          "name": "loanAmount",
          "type": "uint256"
        },
        {
          "internalType": "address",
          "name": "buyDex",
          "type": "address"
        },
        {
          "internalType": "address",
          "name": "sellDex",
          "type": "address"
        },
        {
          "internalType": "address",
          "name": "profitToken",
          "type": "address"
        },
        {
          "internalType": "uint256",
          "name": "minProfit",
          "type": "uint256"
        }
      ],
      "name": "executeArb",
      "outputs": [],
      "stateMutability": "nonpayable",
      "type": "function"
    },
    {
      "inputs": [
        {
          "internalType": "address",
          "name": "asset",
          "type": "address"
        },
        {
          "internalType": "uint256",
          "name": "amount",
          "type": "uint256"
        },
        {
          "internalType": "uint256",
          "name": "premium",
          "type": "uint256"
        },
        {
          "internalType": "address",
          "name": "initiator",
          "type": "address"
        },
        {
          "internalType": "bytes",
          "name": "params",
          "type": "bytes"
        }
      ],
      "name": "executeOperation",
      "outputs": [
        {
          "internalType": "bool",
          "name": "",
          "type": "bool"
        }
      ],
      "stateMutability": "nonpayable",
      "type": "function"
    },
    {
      "inputs": [],
      "name": "minProfitWei",
      "outputs": [
        {
          "internalType": "uint256",
          "name": "",
          "type": "uint256"
        }
      ],
      "stateMutability": "view",
      "type": "function"
    },
    {
      "inputs": [],
      "name": "owner",
      "outputs": [
        {
          "internalType": "address",
          "name": "",
          "type": "address"
        }
      ],
      "stateMutability": "view",
      "type": "function"
    },
    {
      "inputs": [],
      "name": "paused",
      "outputs": [
        {
          "internalType": "bool",
          "name": "",
          "type": "bool"
        }
      ],
      "stateMutability": "view",
      "type": "function"
    },
    {
      "inputs": [],
      "name": "profitWallet",
      "outputs": [
        {
          "internalType": "address",
          "name": "",
          "type": "address"
        }
      ],
      "stateMutability": "view",
      "type": "function"
    },
    {
      "inputs": [
        {
          "internalType": "uint256",
          "name": "_minProfitWei",
          "type": "uint256"
        }
      ],
      "name": "setMinProfit",
      "outputs": [],
      "stateMutability": "nonpayable",
      "type": "function"
    },
    {
      "inputs": [
        {
          "internalType": "bool",
          "name": "_paused",
          "type": "bool"
        }
      ],
      "name": "setPaused",
      "outputs": [],
      "stateMutability": "nonpayable",
      "type": "function"
    },
    {
      "inputs": [
        {
          "internalType": "address",
          "name": "_wallet",
          "type": "address"
        }
      ],
      "name": "setProfitWallet",
      "outputs": [],
      "stateMutability": "nonpayable",
      "type": "function"
    },
    {
      "inputs": [
        {
          "internalType": "address",
          "name": "token",
          "type": "address"
        },
        {
          "internalType": "uint256",
          "name": "amount",
          "type": "uint256"
        }
      ],
      "name": "withdrawToken",
      "outputs": [],
      "stateMutability": "nonpayable",
      "type": "function"
    },
    {
      "stateMutability": "payable",
      "type": "receive"
    }
  ],
  "bytecode": "0x60c0346100f957601f610e0f38819003918201601f19168301916001600160401b038311848410176100fe578084926060946040528339810103126100f95761004781610114565b604061005560208401610114565b920151916001600160a01b03918083161580156100ef575b6100dd573360805260a0521660018060a01b03196000541617600055600155604051610ce69081610129823960805181818160f2015281816101c30152818161030d0152818161045c015281816104a00152610841015260a05181818161016b0152818161037501526105af0152f35b60405163d92e233d60e01b8152600490fd5b508282161561006d565b600080fd5b634e487b7160e01b600052604160045260246000fd5b51906001600160a01b03821682036100f95756fe60806040908082526004908136101561004a575b50361561001f57600080fd5b6020606492519162461bcd60e51b835282015260066024820152650dcde408aa8960d31b6044820152fd5b600090813560e01c90816316c38b3c1461081d575080631b11d0ff1461054e5780632301d775146105265780632dba7804146105075780635c975abb146104e357806378400f171461048b5780638da5cb5b14610447578063985a4378146102b65780639e281a981461019e578063a03e4bc3146101565763da2ca9b50361001357919034610152576020366003190112610152576100e76108bc565b6001600160a01b03907f000000000000000000000000000000000000000000000000000000000000000082163303610142571691821561013557505081546001600160a01b03191617815580f35b5163d92e233d60e01b8152fd5b83516330cd747160e01b81528390fd5b8280fd5b50823461019a578160031936011261019a57517f00000000000000000000000000000000000000000000000000000000000000006001600160a01b03168152602090f35b5080fd5b509190346101525781600319360112610152576101b96108bc565b6001600160a01b037f0000000000000000000000000000000000000000000000000000000000000000818116926024359290338590036102a657865163a9059cbb60e01b81526001600160a01b03909316958301958652602086810185905291169482908190604001038189885af1801561029c57917fe6fee221bb8a85476104e6b67ae7b66010866c78f60f8ce4946f80da6ce04df09591606095949361026e575b5081519384526020840152820152a180f35b61028e9060203d8111610295575b6102868183610917565b8101906109b0565b503861025c565b503d61027c565b85513d88823e3d90fd5b86516330cd747160e01b81528690fd5b50823461019a5760c036600319011261019a576102d16108bc565b6001600160a01b039190604435838116919082900361040c576102f26108d7565b608435908582168092036104435760ff6002541661043357857f000000000000000000000000000000000000000000000000000000000000000016330361042357859085519460208601521684840152606083015260a43560808301526080825260a082019382851067ffffffffffffffff8611176104105790859291858552807f00000000000000000000000000000000000000000000000000000000000000001691823b1561040c576310ac2ddf60e21b87523060a48501521660c483015260243560e483015260a06101048301528491829084906103d7610144820182610939565b610124820183905203609f1901925af190811561040357506103f7575080f35b610400906108ed565b80f35b513d84823e3d90fd5b8480fd5b634e487b7160e01b865260418752602486fd5b84516330cd747160e01b81528890fd5b845163ab35696f60e01b81528890fd5b8680fd5b50823461019a578160031936011261019a57517f00000000000000000000000000000000000000000000000000000000000000006001600160a01b03168152602090f35b509134610152576020366003190112610152577f00000000000000000000000000000000000000000000000000000000000000006001600160a01b031633036104d657503560015580f35b516330cd747160e01b8152fd5b50823461019a578160031936011261019a5760209060ff6002541690519015158152f35b50823461019a578160031936011261019a576020906001549051908152f35b50823461019a578160031936011261019a57905490516001600160a01b039091168152602090f35b509190346101525760a03660031901126101525761056a6108bc565b60248035916105776108d7565b6084359667ffffffffffffffff80891161019a573660238a01121561019a578887013590811161019a57880195368588011161019a577f0000000000000000000000000000000000000000000000000000000000000000966001600160a01b0393848916330361080d5784309116036107db5789608091031261019a576105ff898601610979565b9261060c60448b01610979565b94818061061b60648e01610979565b9c608401359616961696604435610632908a61098d565b9b88846106408a8d876109dc565b92169161064c926109dc565b958c87106107cb578c87039687116107b957600154808211156107b15750905b818710610796575050895163095ea7b360e01b81526001600160a01b03909916838a0190815260208181019c909c5290821698908b90829081906040010381878d5af1801561078c5791859493918c9361076f575b5083548b5163a9059cbb60e01b815291166001600160a01b03169181019182526020820194909452839081906040010381848b5af19081156107645750917f685987fef7b88d49bd15bdd17c4ced40b452875da1e084a3fd7451a802e7693895939160809593610747575b50875193845288840152868301526060820152a25160018152f35b61075d908a3d8c11610295576102868183610917565b503861072c565b8851903d90823e3d90fd5b61078590843d8611610295576102868183610917565b50386106c1565b8a513d86823e3d90fd5b6044918591888e519363031bbcbf60e61b8552840152820152fd5b90509061066c565b50634e487b7160e01b85526011845284fd5b8b51630443f54160e21b81528590fd5b885162461bcd60e51b8152602081840152600d818801526c3130b21034b734ba34b0ba37b960991b6044820152606490fd5b895163b27a27bf60e01b81528390fd5b90508383346108b85760203660031901126108b85780359283151580940361040c577f00000000000000000000000000000000000000000000000000000000000000006001600160a01b031633036108ac57847f0e2fb031ee032dc02d8011dc50b816eb450cf856abd8261680dac74f72165bd26020868660ff196002541660ff83161760025551908152a180f35b6330cd747160e01b8152fd5b8380fd5b600435906001600160a01b03821682036108d257565b600080fd5b606435906001600160a01b03821682036108d257565b67ffffffffffffffff811161090157604052565b634e487b7160e01b600052604160045260246000fd5b90601f8019910116810190811067ffffffffffffffff82111761090157604052565b919082519283825260005b848110610965575050826000602080949584010152601f8019910116010190565b602081830181015184830182015201610944565b35906001600160a01b03821682036108d257565b9190820180921161099a57565b634e487b7160e01b600052601160045260246000fd5b908160209103126108d2575180151581036108d25790565b51906001600160701b03821682036108d257565b60408051630dfe168160e01b815293949360209391926004926001600160a01b03808916939287848781885afa938415610c6b57600094610c76575b50811692168214918551630240bc6b60e21b81526060818781885afa908115610c6b576000908192610c12575b508415610c00576001600160701b0391821691165b6103e59081850291858304811486151715610beb5783860202928284041482151715610bd6576103e890818102918183041490151715610bd65790610a9e9161098d565b908115610bc157875163a9059cbb60e01b81526001600160a01b03909b16878c019081526020810194909452049891879183918290600090829060400103925af18015610bb657610b99575b5015610b9057859060005b845195860186811067ffffffffffffffff821117610b7b57855260008652813b156108d25760008094610b5387519889968795869463022c0d9f60e01b86528501526024840152306044840152608060648401526084830190610939565b03925af1908115610b715750610b665750565b610b6f906108ed565b565b513d6000823e3d90fd5b604185634e487b7160e01b6000525260246000fd5b60009086610af5565b610baf90863d8811610295576102868183610917565b5038610aea565b85513d6000823e3d90fd5b601287634e487b7160e01b6000525260246000fd5b601188634e487b7160e01b6000525260246000fd5b601189634e487b7160e01b6000525260246000fd5b6001600160701b039081169116610a5a565b91506060823d8211610c63575b81610c2c60609383610917565b81010312610c6057610c3d826109c8565b9088610c4a8b85016109c8565b93015163ffffffff811603610c60575038610a45565b80fd5b3d9150610c1f565b87513d6000823e3d90fd5b8881819693963d8311610ca9575b610c8e8183610917565b8101031261019a5751908282168203610c6057509281610a18565b503d610c8456fea26469706673582212206984408be24fcf84340fc33bebb3b9a7e16ee2306f623372cfb54c7103a942cb64736f6c63430008140033",
  "linkReferences": {},
  "deployedLinkReferences": {}
}