{"contracts/EliteAntArb.sol":{"EliteAntArb":{"abi":[{"inputs":[{"internalType":"address","name":"_aavePool","type":"address"},{"internalType":"address","name":"_profitWallet","type":"address"},{"internalType":"uint256","name":"_minProfitWei","type":"uint256"}],"stateMutability":"nonpayable","type":"constructor"},{"inputs":[],"name":"ContractPaused","type":"error"},{"inputs":[],"name":"InsufficientRepayment","type":"error"},{"inputs":[],"name":"NotAavePool","type":"error"},{"inputs":[],"name":"NotOwner","type":"error"},{"inputs":[{"internalType":"uint256","name":"actual","type":"uint256"},{"internalType":"uint256","name":"minimum","type":"uint256"}],"name":"ProfitBelowMinimum","type":"error"},{"inputs":[],"name":"ZeroAddress","type":"error"},{"anonymous":false,"inputs":[{"indexed":true,"internalType":"address","name":"loanToken","type":"address"},{"indexed":false,"internalType":"uint256","name":"loanAmount","type":"uint256"},{"indexed":false,"internalType":"uint256","name":"profit","type":"uint256"},{"indexed":false,"internalType":"address","name":"buyDex","type":"address"},{"indexed":false,"internalType":"address","name":"sellDex","type":"address"}],"name":"ArbExecuted","type":"event"},{"anonymous":false,"inputs":[{"indexed":false,"internalType":"bool","name":"state","type":"bool"}],"name":"Paused","type":"event"},{"anonymous":false,"inputs":[{"indexed":false,"internalType":"address","name":"token","type":"address"},{"indexed":false,"internalType":"uint256","name":"amount","type":"uint256"},{"indexed":false,"internalType":"address","name":"to","type":"address"}],"name":"ProfitWithdrawn","type":"event"},{"inputs":[],"name":"aavePool","outputs":[{"internalType":"address","name":"","type":"address"}],"stateMutability":"view","type":"function"},{"inputs":[{"internalType":"address","name":"loanToken","type":"address"},{"internalType":"uint256","name":"loanAmount","type":"uint256"},{"internalType":"address","name":"buyDex","type":"address"},{"internalType":"address","name":"sellDex","type":"address"},{"internalType":"address","name":"profitToken","type":"address"},{"internalType":"uint256","name":"minProfit","type":"uint256"}],"name":"executeArb","outputs":[],"stateMutability":"nonpayable","type":"function"},{"inputs":[{"internalType":"address","name":"asset","type":"address"},{"internalType":"uint256","name":"amount","type":"uint256"},{"internalType":"uint256","name":"premium","type":"uint256"},{"internalType":"address","name":"initiator","type":"address"},{"internalType":"bytes","name":"params","type":"bytes"}],"name":"executeOperation","outputs":[{"internalType":"bool","name":"","type":"bool"}],"stateMutability":"nonpayable","type":"function"},{"inputs":[],"name":"minProfitWei","outputs":[{"internalType":"uint256","name":"","type":"uint256"}],"stateMutability":"view","type":"function"},{"inputs":[],"name":"owner","outputs":[{"internalType":"address","name":"","type":"address"}],"stateMutability":"view","type":"function"},{"inputs":[],"name":"paused","outputs":[{"internalType":"bool","name":"","type":"bool"}],"stateMutability":"view","type":"function"},{"inputs":[],"name":"profitWallet","outputs":[{"internalType":"address","name":"","type":"address"}],"stateMutability":"view","type":"function"},{"inputs":[{"internalType":"uint256","name":"_minProfitWei","type":"uint256"}],"name":"setMinProfit","outputs":[],"stateMutability":"nonpayable","type":"function"},{"inputs":[{"internalType":"bool","name":"_paused","type":"bool"}],"name":"setPaused","outputs":[],"stateMutability":"nonpayable","type":"function"},{"inputs":[{"internalType":"address","name":"_wallet","type":"address"}],"name":"setProfitWallet","outputs":[],"stateMutability":"nonpayable","type":"function"},{"inputs":[{"internalType":"address","name":"token","type":"address"},{"internalType":"uint256","name":"amount","type":"uint256"}],"name":"withdrawToken","outputs":[],"stateMutability":"nonpayable","type":"function"},{"stateMutability":"payable","type":"receive"}],"evm":{"bytecode":{"linkReferences":{},"object":"60c0346100f957601f610e0f38819003918201601f19168301916001600160401b038311848410176100fe578084926060946040528339810103126100f95761004781610114565b604061005560208401610114565b920151916001600160a01b03918083161580156100ef575b6100dd573360805260a0521660018060a01b03196000541617600055600155604051610ce69081610129823960805181818160f2015281816101c30152818161030d0152818161045c015281816104a00152610841015260a05181818161016b0152818161037501526105af0152f35b60405163d92e233d60e01b8152600490fd5b508282161561006d565b600080fd5b634e487b7160e01b600052604160045260246000fd5b51906001600160a01b03821682036100f95756fe60806040908082526004908136101561004a575b50361561001f57600080fd5b6020606492519162461bcd60e51b835282015260066024820152650dcde408aa8960d31b6044820152fd5b600090813560e01c90816316c38b3c1461081d575080631b11d0ff1461054e5780632301d775146105265780632dba7804146105075780635c975abb146104e357806378400f171461048b5780638da5cb5b14610447578063985a4378146102b65780639e281a981461019e578063a03e4bc3146101565763da2ca9b50361001357919034610152576020366003190112610152576100e76108bc565b6001600160a01b03907f000000000000000000000000000000000000000000000000000000000000000082163303610142571691821561013557505081546001600160a01b03191617815580f35b5163d92e233d60e01b8152fd5b83516330cd747160e01b81528390fd5b8280fd5b50823461019a578160031936011261019a57517f00000000000000000000000000000000000000000000000000000000000000006001600160a01b03168152602090f35b5080fd5b509190346101525781600319360112610152576101b96108bc565b6001600160a01b037f0000000000000000000000000000000000000000000000000000000000000000818116926024359290338590036102a657865163a9059cbb60e01b81526001600160a01b03909316958301958652602086810185905291169482908190604001038189885af1801561029c57917fe6fee221bb8a85476104e6b67ae7b66010866c78f60f8ce4946f80da6ce04df09591606095949361026e575b5081519384526020840152820152a180f35b61028e9060203d8111610295575b6102868183610917565b8101906109b0565b503861025c565b503d61027c565b85513d88823e3d90fd5b86516330cd747160e01b81528690fd5b50823461019a5760c036600319011261019a576102d16108bc565b6001600160a01b039190604435838116919082900361040c576102f26108d7565b608435908582168092036104435760ff6002541661043357857f000000000000000000000000000000000000000000000000000000000000000016330361042357859085519460208601521684840152606083015260a43560808301526080825260a082019382851067ffffffffffffffff8611176104105790859291858552807f00000000000000000000000000000000000000000000000000000000000000001691823b1561040c576310ac2ddf60e21b87523060a48501521660c483015260243560e483015260a06101048301528491829084906103d7610144820182610939565b610124820183905203609f1901925af190811561040357506103f7575080f35b610400906108ed565b80f35b513d84823e3d90fd5b8480fd5b634e487b7160e01b865260418752602486fd5b84516330cd747160e01b81528890fd5b845163ab35696f60e01b81528890fd5b8680fd5b50823461019a578160031936011261019a57517f00000000000000000000000000000000000000000000000000000000000000006001600160a01b03168152602090f35b509134610152576020366003190112610152577f00000000000000000000000000000000000000000000000000000000000000006001600160a01b031633036104d657503560015580f35b516330cd747160e01b8152fd5b50823461019a578160031936011261019a5760209060ff6002541690519015158152f35b50823461019a578160031936011261019a576020906001549051908152f35b50823461019a578160031936011261019a57905490516001600160a01b039091168152602090f35b509190346101525760a03660031901126101525761056a6108bc565b60248035916105776108d7565b6084359667ffffffffffffffff80891161019a573660238a01121561019a578887013590811161019a57880195368588011161019a577f0000000000000000000000000000000000000000000000000000000000000000966001600160a01b0393848916330361080d5784309116036107db5789608091031261019a576105ff898601610979565b9261060c60448b01610979565b94818061061b60648e01610979565b9c608401359616961696604435610632908a61098d565b9b88846106408a8d876109dc565b92169161064c926109dc565b958c87106107cb578c87039687116107b957600154808211156107b15750905b818710610796575050895163095ea7b360e01b81526001600160a01b03909916838a0190815260208181019c909c5290821698908b90829081906040010381878d5af1801561078c5791859493918c9361076f575b5083548b5163a9059cbb60e01b815291166001600160a01b03169181019182526020820194909452839081906040010381848b5af19081156107645750917f685987fef7b88d49bd15bdd17c4ced40b452875da1e084a3fd7451a802e7693895939160809593610747575b50875193845288840152868301526060820152a25160018152f35b61075d908a3d8c11610295576102868183610917565b503861072c565b8851903d90823e3d90fd5b61078590843d8611610295576102868183610917565b50386106c1565b8a513d86823e3d90fd5b6044918591888e519363031bbcbf60e61b8552840152820152fd5b90509061066c565b50634e487b7160e01b85526011845284fd5b8b51630443f54160e21b81528590fd5b885162461bcd60e51b8152602081840152600d818801526c3130b21034b734ba34b0ba37b960991b6044820152606490fd5b895163b27a27bf60e01b81528390fd5b90508383346108b85760203660031901126108b85780359283151580940361040c577f00000000000000000000000000000000000000000000000000000000000000006001600160a01b031633036108ac57847f0e2fb031ee032dc02d8011dc50b816eb450cf856abd8261680dac74f72165bd26020868660ff196002541660ff83161760025551908152a180f35b6330cd747160e01b8152fd5b8380fd5b600435906001600160a01b03821682036108d257565b600080fd5b606435906001600160a01b03821682036108d257565b67ffffffffffffffff811161090157604052565b634e487b7160e01b600052604160045260246000fd5b90601f8019910116810190811067ffffffffffffffff82111761090157604052565b919082519283825260005b848110610965575050826000602080949584010152601f8019910116010190565b602081830181015184830182015201610944565b35906001600160a01b03821682036108d257565b9190820180921161099a57565b634e487b7160e01b600052601160045260246000fd5b908160209103126108d2575180151581036108d25790565b51906001600160701b03821682036108d257565b60408051630dfe168160e01b815293949360209391926004926001600160a01b03808916939287848781885afa938415610c6b57600094610c76575b50811692168214918551630240bc6b60e21b81526060818781885afa908115610c6b576000908192610c12575b508415610c00576001600160701b0391821691165b6103e59081850291858304811486151715610beb5783860202928284041482151715610bd6576103e890818102918183041490151715610bd65790610a9e9161098d565b908115610bc157875163a9059cbb60e01b81526001600160a01b03909b16878c019081526020810194909452049891879183918290600090829060400103925af18015610bb657610b99575b5015610b9057859060005b845195860186811067ffffffffffffffff821117610b7b57855260008652813b156108d25760008094610b5387519889968795869463022c0d9f60e01b86528501526024840152306044840152608060648401526084830190610939565b03925af1908115610b715750610b665750565b610b6f906108ed565b565b513d6000823e3d90fd5b604185634e487b7160e01b6000525260246000fd5b60009086610af5565b610baf90863d8811610295576102868183610917565b5038610aea565b85513d6000823e3d90fd5b601287634e487b7160e01b6000525260246000fd5b601188634e487b7160e01b6000525260246000fd5b601189634e487b7160e01b6000525260246000fd5b6001600160701b039081169116610a5a565b91506060823d8211610c63575b81610c2c60609383610917565b81010312610c6057610c3d826109c8565b9088610c4a8b85016109c8565b93015163ffffffff811603610c60575038610a45565b80fd5b3d9150610c1f565b87513d6000823e3d90fd5b8881819693963d8311610ca9575b610c8e8183610917565b8101031261019a5751908282168203610c6057509281610a18565b503d610c8456fea26469706673582212206984408be24fcf84340fc33bebb3b9a7e16ee2306f623372cfb54c7103a942cb64736f6c63430008140033","opcodes":"PUSH1 0xC0 CALLVALUE PUSH2 0xF9 JUMPI PUSH1 0x1F PUSH2 0xE0F CODESIZE DUP2 SWAP1 SUB SWAP2 DUP3 ADD PUSH1 0x1F NOT AND DUP4 ADD SWAP2 PUSH1 0x1 PUSH1 0x1 PUSH1 0x40 SHL SUB DUP4 GT DUP5 DUP5 LT OR PUSH2 0xFE JUMPI DUP1 DUP5 SWAP3 PUSH1 0x60 SWAP5 PUSH1 0x40 MSTORE DUP4 CODECOPY DUP2 ADD SUB SLT PUSH2 0xF9 JUMPI PUSH2 0x47 DUP2 PUSH2 0x114 JUMP JUMPDEST PUSH1 0x40 PUSH2 0x55 PUSH1 0x20 DUP5 ADD PUSH2 0x114 JUMP JUMPDEST SWAP3 ADD MLOAD SWAP2 PUSH1 0x1 PUSH1 0x1 PUSH1 0xA0 SHL SUB SWAP2 DUP1 DUP4 AND ISZERO DUP1 ISZERO PUSH2 0xEF JUMPI JUMPDEST PUSH2 0xDD JUMPI CALLER PUSH1 0x80 MSTORE PUSH1 0xA0 MSTORE AND PUSH1 0x1 DUP1 PUSH1 0xA0 SHL SUB NOT PUSH1 0x0 SLOAD AND OR PUSH1 0x0 SSTORE PUSH1 0x1 SSTORE PUSH1 0x40 MLOAD PUSH2 0xCE6 SWAP1 DUP2 PUSH2 0x129 DUP3 CODECOPY PUSH1 0x80 MLOAD DUP2 DUP2 DUP2 PUSH1 0xF2 ADD MSTORE DUP2 DUP2 PUSH2 0x1C3 ADD MSTORE DUP2 DUP2 PUSH2 0x30D ADD MSTORE DUP2 DUP2 PUSH2 0x45C ADD MSTORE DUP2 DUP2 PUSH2 0x4A0 ADD MSTORE PUSH2 0x841 ADD MSTORE PUSH1 0xA0 MLOAD DUP2 DUP2 DUP2 PUSH2 0x16B ADD MSTORE DUP2 DUP2 PUSH2 0x375 ADD MSTORE PUSH2 0x5AF ADD MSTORE RETURN JUMPDEST PUSH1 0x40 MLOAD PUSH4 0xD92E233D PUSH1 0xE0 SHL DUP2 MSTORE PUSH1 0x4 SWAP1 REVERT JUMPDEST POP DUP3 DUP3 AND ISZERO PUSH2 0x6D JUMP JUMPDEST PUSH1 0x0 DUP1 REVERT JUMPDEST PUSH4 0x4E487B71 PUSH1 0xE0 SHL PUSH1 0x0 MSTORE PUSH1 0x41 PUSH1 0x4 MSTORE PUSH1 0x24 PUSH1 0x0 REVERT JUMPDEST MLOAD SWAP1 PUSH1 0x1 PUSH1 0x1 PUSH1 0xA0 SHL SUB DUP3 AND DUP3 SUB PUSH2 0xF9 JUMPI JUMP INVALID PUSH1 0x80 PUSH1 0x40 SWAP1 DUP1 DUP3 MSTORE PUSH1 0x4 SWAP1 DUP2 CALLDATASIZE LT ISZERO PUSH2 0x4A JUMPI JUMPDEST POP CALLDATASIZE ISZERO PUSH2 0x1F JUMPI PUSH1 0x0 DUP1 REVERT JUMPDEST PUSH1 0x20 PUSH1 0x64 SWAP3 MLOAD SWAP2 PUSH3 0x461BCD PUSH1 0xE5 SHL DUP4 MSTORE DUP3 ADD MSTORE PUSH1 0x6 PUSH1 0x24 DUP3 ADD MSTORE PUSH6 0xDCDE408AA89 PUSH1 0xD3 SHL PUSH1 0x44 DUP3 ADD MSTORE REVERT JUMPDEST PUSH1 0x0 SWAP1 DUP2 CALLDATALOAD PUSH1 0xE0 SHR SWAP1 DUP2 PUSH4 0x16C38B3C EQ PUSH2 0x81D JUMPI POP DUP1 PUSH4 0x1B11D0FF EQ PUSH2 0x54E JUMPI DUP1 PUSH4 0x2301D775 EQ PUSH2 0x526 JUMPI DUP1 PUSH4 0x2DBA7804 EQ PUSH2 0x507 JUMPI DUP1 PUSH4 0x5C975ABB EQ PUSH2 0x4E3 JUMPI DUP1 PUSH4 0x78400F17 EQ PUSH2 0x48B JUMPI DUP1 PUSH4 0x8DA5CB5B EQ PUSH2 0x447 JUMPI DUP1 PUSH4 0x985A4378 EQ PUSH2 0x2B6 JUMPI DUP1 PUSH4 0x9E281A98 EQ PUSH2 0x19E JUMPI DUP1 PUSH4 0xA03E4BC3 EQ PUSH2 0x156 JUMPI PUSH4 0xDA2CA9B5 SUB PUSH2 0x13 JUMPI SWAP2 SWAP1 CALLVALUE PUSH2 0x152 JUMPI PUSH1 0x20 CALLDATASIZE PUSH1 0x3 NOT ADD SLT PUSH2 0x152 JUMPI PUSH2 0xE7 PUSH2 0x8BC JUMP JUMPDEST PUSH1 0x1 PUSH1 0x1 PUSH1 0xA0 SHL SUB SWAP1 PUSH32 0x0 DUP3 AND CALLER SUB PUSH2 0x142 JUMPI AND SWAP2 DUP3 ISZERO PUSH2 0x135 JUMPI POP POP DUP2 SLOAD PUSH1 0x1 PUSH1 0x1 PUSH1 0xA0 SHL SUB NOT AND OR DUP2 SSTORE DUP1 RETURN JUMPDEST MLOAD PUSH4 0xD92E233D PUSH1 0xE0 SHL DUP2 MSTORE REVERT JUMPDEST DUP4 MLOAD PUSH4 0x30CD7471 PUSH1 0xE0 SHL DUP2 MSTORE DUP4 SWAP1 REVERT JUMPDEST DUP3 DUP1 REVERT JUMPDEST POP DUP3 CALLVALUE PUSH2 0x19A JUMPI DUP2 PUSH1 0x3 NOT CALLDATASIZE ADD SLT PUSH2 0x19A JUMPI MLOAD PUSH32 0x0 PUSH1 0x1 PUSH1 0x1 PUSH1 0xA0 SHL SUB AND DUP2 MSTORE PUSH1 0x20 SWAP1 RETURN JUMPDEST POP DUP1 REVERT JUMPDEST POP SWAP2 SWAP1 CALLVALUE PUSH2 0x152 JUMPI DUP2 PUSH1 0x3 NOT CALLDATASIZE ADD SLT PUSH2 0x152 JUMPI PUSH2 0x1B9 PUSH2 0x8BC JUMP JUMPDEST PUSH1 0x1 PUSH1 0x1 PUSH1 0xA0 SHL SUB PUSH32 0x0 DUP2 DUP2 AND SWAP3 PUSH1 0x24 CALLDATALOAD SWAP3 SWAP1 CALLER DUP6 SWAP1 SUB PUSH2 0x2A6 JUMPI DUP7 MLOAD PUSH4 0xA9059CBB PUSH1 0xE0 SHL DUP2 MSTORE PUSH1 0x1 PUSH1 0x1 PUSH1 0xA0 SHL SUB SWAP1 SWAP4 AND SWAP6 DUP4 ADD SWAP6 DUP7 MSTORE PUSH1 0x20 DUP7 DUP2 ADD DUP6 SWAP1 MSTORE SWAP2 AND SWAP5 DUP3 SWAP1 DUP2 SWAP1 PUSH1 0x40 ADD SUB DUP2 DUP10 DUP9 GAS CALL DUP1 ISZERO PUSH2 0x29C JUMPI SWAP2 PUSH32 0xE6FEE221BB8A85476104E6B67AE7B66010866C78F60F8CE4946F80DA6CE04DF0 SWAP6 SWAP2 PUSH1 0x60 SWAP6 SWAP5 SWAP4 PUSH2 0x26E JUMPI JUMPDEST POP DUP2 MLOAD SWAP4 DUP5 MSTORE PUSH1 0x20 DUP5 ADD MSTORE DUP3 ADD MSTORE LOG1 DUP1 RETURN JUMPDEST PUSH2 0x28E SWAP1 PUSH1 0x20 RETURNDATASIZE DUP2 GT PUSH2 0x295 JUMPI JUMPDEST PUSH2 0x286 DUP2 DUP4 PUSH2 0x917 JUMP JUMPDEST DUP2 ADD SWAP1 PUSH2 0x9B0 JUMP JUMPDEST POP CODESIZE PUSH2 0x25C JUMP JUMPDEST POP RETURNDATASIZE PUSH2 0x27C JUMP JUMPDEST DUP6 MLOAD RETURNDATASIZE DUP9 DUP3 RETURNDATACOPY RETURNDATASIZE SWAP1 REVERT JUMPDEST DUP7 MLOAD PUSH4 0x30CD7471 PUSH1 0xE0 SHL DUP2 MSTORE DUP7 SWAP1 REVERT JUMPDEST POP DUP3 CALLVALUE PUSH2 0x19A JUMPI PUSH1 0xC0 CALLDATASIZE PUSH1 0x3 NOT ADD SLT PUSH2 0x19A JUMPI PUSH2 0x2D1 PUSH2 0x8BC JUMP JUMPDEST PUSH1 0x1 PUSH1 0x1 PUSH1 0xA0 SHL SUB SWAP2 SWAP1 PUSH1 0x44 CALLDATALOAD DUP4 DUP2 AND SWAP2 SWAP1 DUP3 SWAP1 SUB PUSH2 0x40C JUMPI PUSH2 0x2F2 PUSH2 0x8D7 JUMP JUMPDEST PUSH1 0x84 CALLDATALOAD SWAP1 DUP6 DUP3 AND DUP1 SWAP3 SUB PUSH2 0x443 JUMPI PUSH1 0xFF PUSH1 0x2 SLOAD AND PUSH2 0x433 JUMPI DUP6 PUSH32 0x0 AND CALLER SUB PUSH2 0x423 JUMPI DUP6 SWAP1 DUP6 MLOAD SWAP5 PUSH1 0x20 DUP7 ADD MSTORE AND DUP5 DUP5 ADD MSTORE PUSH1 0x60 DUP4 ADD MSTORE PUSH1 0xA4 CALLDATALOAD PUSH1 0x80 DUP4 ADD MSTORE PUSH1 0x80 DUP3 MSTORE PUSH1 0xA0 DUP3 ADD SWAP4 DUP3 DUP6 LT PUSH8 0xFFFFFFFFFFFFFFFF DUP7 GT OR PUSH2 0x410 JUMPI SWAP1 DUP6 SWAP3 SWAP2 DUP6 DUP6 MSTORE DUP1 PUSH32 0x0 AND SWAP2 DUP3 EXTCODESIZE ISZERO PUSH2 0x40C JUMPI PUSH4 0x10AC2DDF PUSH1 0xE2 SHL DUP8 MSTORE ADDRESS PUSH1 0xA4 DUP6 ADD MSTORE AND PUSH1 0xC4 DUP4 ADD MSTORE PUSH1 0x24 CALLDATALOAD PUSH1 0xE4 DUP4 ADD MSTORE PUSH1 0xA0 PUSH2 0x104 DUP4 ADD MSTORE DUP5 SWAP2 DUP3 SWAP1 DUP5 SWAP1 PUSH2 0x3D7 PUSH2 0x144 DUP3 ADD DUP3 PUSH2 0x939 JUMP JUMPDEST PUSH2 0x124 DUP3 ADD DUP4 SWAP1 MSTORE SUB PUSH1 0x9F NOT ADD SWAP3 GAS CALL SWAP1 DUP2 ISZERO PUSH2 0x403 JUMPI POP PUSH2 0x3F7 JUMPI POP DUP1 RETURN JUMPDEST PUSH2 0x400 SWAP1 PUSH2 0x8ED JUMP JUMPDEST DUP1 RETURN JUMPDEST MLOAD RETURNDATASIZE DUP5 DUP3 RETURNDATACOPY RETURNDATASIZE SWAP1 REVERT JUMPDEST DUP5 DUP1 REVERT JUMPDEST PUSH4 0x4E487B71 PUSH1 0xE0 SHL DUP7 MSTORE PUSH1 0x41 DUP8 MSTORE PUSH1 0x24 DUP7 REVERT JUMPDEST DUP5 MLOAD PUSH4 0x30CD7471 PUSH1 0xE0 SHL DUP2 MSTORE DUP9 SWAP1 REVERT JUMPDEST DUP5 MLOAD PUSH4 0xAB35696F PUSH1 0xE0 SHL DUP2 MSTORE DUP9 SWAP1 REVERT JUMPDEST DUP7 DUP1 REVERT JUMPDEST POP DUP3 CALLVALUE PUSH2 0x19A JUMPI DUP2 PUSH1 0x3 NOT CALLDATASIZE ADD SLT PUSH2 0x19A JUMPI MLOAD PUSH32 0x0 PUSH1 0x1 PUSH1 0x1 PUSH1 0xA0 SHL SUB AND DUP2 MSTORE PUSH1 0x20 SWAP1 RETURN JUMPDEST POP SWAP2 CALLVALUE PUSH2 0x152 JUMPI PUSH1 0x20 CALLDATASIZE PUSH1 0x3 NOT ADD SLT PUSH2 0x152 JUMPI PUSH32 0x0 PUSH1 0x1 PUSH1 0x1 PUSH1 0xA0 SHL SUB AND CALLER SUB PUSH2 0x4D6 JUMPI POP CALLDATALOAD PUSH1 0x1 SSTORE DUP1 RETURN JUMPDEST MLOAD PUSH4 0x30CD7471 PUSH1 0xE0 SHL DUP2 MSTORE REVERT JUMPDEST POP DUP3 CALLVALUE PUSH2 0x19A JUMPI DUP2 PUSH1 0x3 NOT CALLDATASIZE ADD SLT PUSH2 0x19A JUMPI PUSH1 0x20 SWAP1 PUSH1 0xFF PUSH1 0x2 SLOAD AND SWAP1 MLOAD SWAP1 ISZERO ISZERO DUP2 MSTORE RETURN JUMPDEST POP DUP3 CALLVALUE PUSH2 0x19A JUMPI DUP2 PUSH1 0x3 NOT CALLDATASIZE ADD SLT PUSH2 0x19A JUMPI PUSH1 0x20 SWAP1 PUSH1 0x1 SLOAD SWAP1 MLOAD SWAP1 DUP2 MSTORE RETURN JUMPDEST POP DUP3 CALLVALUE PUSH2 0x19A JUMPI DUP2 PUSH1 0x3 NOT CALLDATASIZE ADD SLT PUSH2 0x19A JUMPI SWAP1 SLOAD SWAP1 MLOAD PUSH1 0x1 PUSH1 0x1 PUSH1 0xA0 SHL SUB SWAP1 SWAP2 AND DUP2 MSTORE PUSH1 0x20 SWAP1 RETURN JUMPDEST POP SWAP2 SWAP1 CALLVALUE PUSH2 0x152 JUMPI PUSH1 0xA0 CALLDATASIZE PUSH1 0x3 NOT ADD SLT PUSH2 0x152 JUMPI PUSH2 0x56A PUSH2 0x8BC JUMP JUMPDEST PUSH1 0x24 DUP1 CALLDATALOAD SWAP2 PUSH2 0x577 PUSH2 0x8D7 JUMP JUMPDEST PUSH1 0x84 CALLDATALOAD SWAP7 PUSH8 0xFFFFFFFFFFFFFFFF DUP1 DUP10 GT PUSH2 0x19A JUMPI CALLDATASIZE PUSH1 0x23 DUP11 ADD SLT ISZERO PUSH2 0x19A JUMPI DUP9 DUP8 ADD CALLDATALOAD SWAP1 DUP2 GT PUSH2 0x19A JUMPI DUP9 ADD SWAP6 CALLDATASIZE DUP6 DUP9 ADD GT PUSH2 0x19A JUMPI PUSH32 0x0 SWAP7 PUSH1 0x1 PUSH1 0x1 PUSH1 0xA0 SHL SUB SWAP4 DUP5 DUP10 AND CALLER SUB PUSH2 0x80D JUMPI DUP5 ADDRESS SWAP2 AND SUB PUSH2 0x7DB JUMPI DUP10 PUSH1 0x80 SWAP2 SUB SLT PUSH2 0x19A JUMPI PUSH2 0x5FF DUP10 DUP7 ADD PUSH2 0x979 JUMP JUMPDEST SWAP3 PUSH2 0x60C PUSH1 0x44 DUP12 ADD PUSH2 0x979 JUMP JUMPDEST SWAP5 DUP2 DUP1 PUSH2 0x61B PUSH1 0x64 DUP15 ADD PUSH2 0x979 JUMP JUMPDEST SWAP13 PUSH1 0x84 ADD CALLDATALOAD SWAP7 AND SWAP7 AND SWAP7 PUSH1 0x44 CALLDATALOAD PUSH2 0x632 SWAP1 DUP11 PUSH2 0x98D JUMP JUMPDEST SWAP12 DUP9 DUP5 PUSH2 0x640 DUP11 DUP14 DUP8 PUSH2 0x9DC JUMP JUMPDEST SWAP3 AND SWAP2 PUSH2 0x64C SWAP3 PUSH2 0x9DC JUMP JUMPDEST SWAP6 DUP13 DUP8 LT PUSH2 0x7CB JUMPI DUP13 DUP8 SUB SWAP7 DUP8 GT PUSH2 0x7B9 JUMPI PUSH1 0x1 SLOAD DUP1 DUP3 GT ISZERO PUSH2 0x7B1 JUMPI POP SWAP1 JUMPDEST DUP2 DUP8 LT PUSH2 0x796 JUMPI POP POP DUP10 MLOAD PUSH4 0x95EA7B3 PUSH1 0xE0 SHL DUP2 MSTORE PUSH1 0x1 PUSH1 0x1 PUSH1 0xA0 SHL SUB SWAP1 SWAP10 AND DUP4 DUP11 ADD SWAP1 DUP2 MSTORE PUSH1 0x20 DUP2 DUP2 ADD SWAP13 SWAP1 SWAP13 MSTORE SWAP1 DUP3 AND SWAP9 SWAP1 DUP12 SWAP1 DUP3 SWAP1 DUP2 SWAP1 PUSH1 0x40 ADD SUB DUP2 DUP8 DUP14 GAS CALL DUP1 ISZERO PUSH2 0x78C JUMPI SWAP2 DUP6 SWAP5 SWAP4 SWAP2 DUP13 SWAP4 PUSH2 0x76F JUMPI JUMPDEST POP DUP4 SLOAD DUP12 MLOAD PUSH4 0xA9059CBB PUSH1 0xE0 SHL DUP2 MSTORE SWAP2 AND PUSH1 0x1 PUSH1 0x1 PUSH1 0xA0 SHL SUB AND SWAP2 DUP2 ADD SWAP2 DUP3 MSTORE PUSH1 0x20 DUP3 ADD SWAP5 SWAP1 SWAP5 MSTORE DUP4 SWAP1 DUP2 SWAP1 PUSH1 0x40 ADD SUB DUP2 DUP5 DUP12 GAS CALL SWAP1 DUP2 ISZERO PUSH2 0x764 JUMPI POP SWAP2 PUSH32 0x685987FEF7B88D49BD15BDD17C4CED40B452875DA1E084A3FD7451A802E76938 SWAP6 SWAP4 SWAP2 PUSH1 0x80 SWAP6 SWAP4 PUSH2 0x747 JUMPI JUMPDEST POP DUP8 MLOAD SWAP4 DUP5 MSTORE DUP9 DUP5 ADD MSTORE DUP7 DUP4 ADD MSTORE PUSH1 0x60 DUP3 ADD MSTORE LOG2 MLOAD PUSH1 0x1 DUP2 MSTORE RETURN JUMPDEST PUSH2 0x75D SWAP1 DUP11 RETURNDATASIZE DUP13 GT PUSH2 0x295 JUMPI PUSH2 0x286 DUP2 DUP4 PUSH2 0x917 JUMP JUMPDEST POP CODESIZE PUSH2 0x72C JUMP JUMPDEST DUP9 MLOAD SWAP1 RETURNDATASIZE SWAP1 DUP3 RETURNDATACOPY RETURNDATASIZE SWAP1 REVERT JUMPDEST PUSH2 0x785 SWAP1 DUP5 RETURNDATASIZE DUP7 GT PUSH2 0x295 JUMPI PUSH2 0x286 DUP2 DUP4 PUSH2 0x917 JUMP JUMPDEST POP CODESIZE PUSH2 0x6C1 JUMP JUMPDEST DUP11 MLOAD RETURNDATASIZE DUP7 DUP3 RETURNDATACOPY RETURNDATASIZE SWAP1 REVERT JUMPDEST PUSH1 0x44 SWAP2 DUP6 SWAP2 DUP9 DUP15 MLOAD SWAP4 PUSH4 0x31BBCBF PUSH1 0xE6 SHL DUP6 MSTORE DUP5 ADD MSTORE DUP3 ADD MSTORE REVERT JUMPDEST SWAP1 POP SWAP1 PUSH2 0x66C JUMP JUMPDEST POP PUSH4 0x4E487B71 PUSH1 0xE0 SHL DUP6 MSTORE PUSH1 0x11 DUP5 MSTORE DUP5 REVERT JUMPDEST DUP12 MLOAD PUSH4 0x443F541 PUSH1 0xE2 SHL DUP2 MSTORE DUP6 SWAP1 REVERT JUMPDEST DUP9 MLOAD PUSH3 0x461BCD PUSH1 0xE5 SHL DUP2 MSTORE PUSH1 0x20 DUP2 DUP5 ADD MSTORE PUSH1 0xD DUP2 DUP9 ADD MSTORE PUSH13 0x3130B21034B734BA34B0BA37B9 PUSH1 0x99 SHL PUSH1 0x44 DUP3 ADD MSTORE PUSH1 0x64 SWAP1 REVERT JUMPDEST DUP10 MLOAD PUSH4 0xB27A27BF PUSH1 0xE0 SHL DUP2 MSTORE DUP4 SWAP1 REVERT JUMPDEST SWAP1 POP DUP4 DUP4 CALLVALUE PUSH2 0x8B8 JUMPI PUSH1 0x20 CALLDATASIZE PUSH1 0x3 NOT ADD SLT PUSH2 0x8B8 JUMPI DUP1 CALLDATALOAD SWAP3 DUP4 ISZERO ISZERO DUP1 SWAP5 SUB PUSH2 0x40C JUMPI PUSH32 0x0 PUSH1 0x1 PUSH1 0x1 PUSH1 0xA0 SHL SUB AND CALLER SUB PUSH2 0x8AC JUMPI DUP5 PUSH32 0xE2FB031EE032DC02D8011DC50B816EB450CF856ABD8261680DAC74F72165BD2 PUSH1 0x20 DUP7 DUP7 PUSH1 0xFF NOT PUSH1 0x2 SLOAD AND PUSH1 0xFF DUP4 AND OR PUSH1 0x2 SSTORE MLOAD SWAP1 DUP2 MSTORE LOG1 DUP1 RETURN JUMPDEST PUSH4 0x30CD7471 PUSH1 0xE0 SHL DUP2 MSTORE REVERT JUMPDEST DUP4 DUP1 REVERT JUMPDEST PUSH1 0x4 CALLDATALOAD SWAP1 PUSH1 0x1 PUSH1 0x1 PUSH1 0xA0 SHL SUB DUP3 AND DUP3 SUB PUSH2 0x8D2 JUMPI JUMP JUMPDEST PUSH1 0x0 DUP1 REVERT JUMPDEST PUSH1 0x64 CALLDATALOAD SWAP1 PUSH1 0x1 PUSH1 0x1 PUSH1 0xA0 SHL SUB DUP3 AND DUP3 SUB PUSH2 0x8D2 JUMPI JUMP JUMPDEST PUSH8 0xFFFFFFFFFFFFFFFF DUP2 GT PUSH2 0x901 JUMPI PUSH1 0x40 MSTORE JUMP JUMPDEST PUSH4 0x4E487B71 PUSH1 0xE0 SHL PUSH1 0x0 MSTORE PUSH1 0x41 PUSH1 0x4 MSTORE PUSH1 0x24 PUSH1 0x0 REVERT JUMPDEST SWAP1 PUSH1 0x1F DUP1 NOT SWAP2 ADD AND DUP2 ADD SWAP1 DUP2 LT PUSH8 0xFFFFFFFFFFFFFFFF DUP3 GT OR PUSH2 0x901 JUMPI PUSH1 0x40 MSTORE JUMP JUMPDEST SWAP2 SWAP1 DUP3 MLOAD SWAP3 DUP4 DUP3 MSTORE PUSH1 0x0 JUMPDEST DUP5 DUP2 LT PUSH2 0x965 JUMPI POP POP DUP3 PUSH1 0x0 PUSH1 0x20 DUP1 SWAP5 SWAP6 DUP5 ADD ADD MSTORE PUSH1 0x1F DUP1 NOT SWAP2 ADD AND ADD ADD SWAP1 JUMP JUMPDEST PUSH1 0x20 DUP2 DUP4 ADD DUP2 ADD MLOAD DUP5 DUP4 ADD DUP3 ADD MSTORE ADD PUSH2 0x944 JUMP JUMPDEST CALLDATALOAD SWAP1 PUSH1 0x1 PUSH1 0x1 PUSH1 0xA0 SHL SUB DUP3 AND DUP3 SUB PUSH2 0x8D2 JUMPI JUMP JUMPDEST SWAP2 SWAP1 DUP3 ADD DUP1 SWAP3 GT PUSH2 0x99A JUMPI JUMP JUMPDEST PUSH4 0x4E487B71 PUSH1 0xE0 SHL PUSH1 0x0 MSTORE PUSH1 0x11 PUSH1 0x4 MSTORE PUSH1 0x24 PUSH1 0x0 REVERT JUMPDEST SWAP1 DUP2 PUSH1 0x20 SWAP2 SUB SLT PUSH2 0x8D2 JUMPI MLOAD DUP1 ISZERO ISZERO DUP2 SUB PUSH2 0x8D2 JUMPI SWAP1 JUMP JUMPDEST MLOAD SWAP1 PUSH1 0x1 PUSH1 0x1 PUSH1 0x70 SHL SUB DUP3 AND DUP3 SUB PUSH2 0x8D2 JUMPI JUMP JUMPDEST PUSH1 0x40 DUP1 MLOAD PUSH4 0xDFE1681 PUSH1 0xE0 SHL DUP2 MSTORE SWAP4 SWAP5 SWAP4 PUSH1 0x20 SWAP4 SWAP2 SWAP3 PUSH1 0x4 SWAP3 PUSH1 0x1 PUSH1 0x1 PUSH1 0xA0 SHL SUB DUP1 DUP10 AND SWAP4 SWAP3 DUP8 DUP5 DUP8 DUP2 DUP9 GAS STATICCALL SWAP4 DUP5 ISZERO PUSH2 0xC6B JUMPI PUSH1 0x0 SWAP5 PUSH2 0xC76 JUMPI JUMPDEST POP DUP2 AND SWAP3 AND DUP3 EQ SWAP2 DUP6 MLOAD PUSH4 0x240BC6B PUSH1 0xE2 SHL DUP2 MSTORE PUSH1 0x60 DUP2 DUP8 DUP2 DUP9 GAS STATICCALL SWAP1 DUP2 ISZERO PUSH2 0xC6B JUMPI PUSH1 0x0 SWAP1 DUP2 SWAP3 PUSH2 0xC12 JUMPI JUMPDEST POP DUP5 ISZERO PUSH2 0xC00 JUMPI PUSH1 0x1 PUSH1 0x1 PUSH1 0x70 SHL SUB SWAP2 DUP3 AND SWAP2 AND JUMPDEST PUSH2 0x3E5 SWAP1 DUP2 DUP6 MUL SWAP2 DUP6 DUP4 DIV DUP2 EQ DUP7 ISZERO OR ISZERO PUSH2 0xBEB JUMPI DUP4 DUP7 MUL MUL SWAP3 DUP3 DUP5 DIV EQ DUP3 ISZERO OR ISZERO PUSH2 0xBD6 JUMPI PUSH2 0x3E8 SWAP1 DUP2 DUP2 MUL SWAP2 DUP2 DUP4 DIV EQ SWAP1 ISZERO OR ISZERO PUSH2 0xBD6 JUMPI SWAP1 PUSH2 0xA9E SWAP2 PUSH2 0x98D JUMP JUMPDEST SWAP1 DUP2 ISZERO PUSH2 0xBC1 JUMPI DUP8 MLOAD PUSH4 0xA9059CBB PUSH1 0xE0 SHL DUP2 MSTORE PUSH1 0x1 PUSH1 0x1 PUSH1 0xA0 SHL SUB SWAP1 SWAP12 AND DUP8 DUP13 ADD SWAP1 DUP2 MSTORE PUSH1 0x20 DUP2 ADD SWAP5 SWAP1 SWAP5 MSTORE DIV SWAP9 SWAP2 DUP8 SWAP2 DUP4 SWAP2 DUP3 SWAP1 PUSH1 0x0 SWAP1 DUP3 SWAP1 PUSH1 0x40 ADD SUB SWAP3 GAS CALL DUP1 ISZERO PUSH2 0xBB6 JUMPI PUSH2 0xB99 JUMPI JUMPDEST POP ISZERO PUSH2 0xB90 JUMPI DUP6 SWAP1 PUSH1 0x0 JUMPDEST DUP5 MLOAD SWAP6 DUP7 ADD DUP7 DUP2 LT PUSH8 0xFFFFFFFFFFFFFFFF DUP3 GT OR PUSH2 0xB7B JUMPI DUP6 MSTORE PUSH1 0x0 DUP7 MSTORE DUP2 EXTCODESIZE ISZERO PUSH2 0x8D2 JUMPI PUSH1 0x0 DUP1 SWAP5 PUSH2 0xB53 DUP8 MLOAD SWAP9 DUP10 SWAP7 DUP8 SWAP6 DUP7 SWAP5 PUSH4 0x22C0D9F PUSH1 0xE0 SHL DUP7 MSTORE DUP6 ADD MSTORE PUSH1 0x24 DUP5 ADD MSTORE ADDRESS PUSH1 0x44 DUP5 ADD MSTORE PUSH1 0x80 PUSH1 0x64 DUP5 ADD MSTORE PUSH1 0x84 DUP4 ADD SWAP1 PUSH2 0x939 JUMP JUMPDEST SUB SWAP3 GAS CALL SWAP1 DUP2 ISZERO PUSH2 0xB71 JUMPI POP PUSH2 0xB66 JUMPI POP JUMP JUMPDEST PUSH2 0xB6F SWAP1 PUSH2 0x8ED JUMP JUMPDEST JUMP JUMPDEST MLOAD RETURNDATASIZE PUSH1 0x0 DUP3 RETURNDATACOPY RETURNDATASIZE SWAP1 REVERT JUMPDEST PUSH1 0x41 DUP6 PUSH4 0x4E487B71 PUSH1 0xE0 SHL PUSH1 0x0 MSTORE MSTORE PUSH1 0x24 PUSH1 0x0 REVERT JUMPDEST PUSH1 0x0 SWAP1 DUP7 PUSH2 0xAF5 JUMP JUMPDEST PUSH2 0xBAF SWAP1 DUP7 RETURNDATASIZE DUP9 GT PUSH2 0x295 JUMPI PUSH2 0x286 DUP2 DUP4 PUSH2 0x917 JUMP JUMPDEST POP CODESIZE PUSH2 0xAEA JUMP JUMPDEST DUP6 MLOAD RETURNDATASIZE PUSH1 0x0 DUP3 RETURNDATACOPY RETURNDATASIZE SWAP1 REVERT JUMPDEST PUSH1 0x12 DUP8 PUSH4 0x4E487B71 PUSH1 0xE0 SHL PUSH1 0x0 MSTORE MSTORE PUSH1 0x24 PUSH1 0x0 REVERT JUMPDEST PUSH1 0x11 DUP9 PUSH4 0x4E487B71 PUSH1 0xE0 SHL PUSH1 0x0 MSTORE MSTORE PUSH1 0x24 PUSH1 0x0 REVERT JUMPDEST PUSH1 0x11 DUP10 PUSH4 0x4E487B71 PUSH1 0xE0 SHL PUSH1 0x0 MSTORE MSTORE PUSH1 0x24 PUSH1 0x0 REVERT JUMPDEST PUSH1 0x1 PUSH1 0x1 PUSH1 0x70 SHL SUB SWAP1 DUP2 AND SWAP2 AND PUSH2 0xA5A JUMP JUMPDEST SWAP2 POP PUSH1 0x60 DUP3 RETURNDATASIZE DUP3 GT PUSH2 0xC63 JUMPI JUMPDEST DUP2 PUSH2 0xC2C PUSH1 0x60 SWAP4 DUP4 PUSH2 0x917 JUMP JUMPDEST DUP2 ADD SUB SLT PUSH2 0xC60 JUMPI PUSH2 0xC3D DUP3 PUSH2 0x9C8 JUMP JUMPDEST SWAP1 DUP9 PUSH2 0xC4A DUP12 DUP6 ADD PUSH2 0x9C8 JUMP JUMPDEST SWAP4 ADD MLOAD PUSH4 0xFFFFFFFF DUP2 AND SUB PUSH2 0xC60 JUMPI POP CODESIZE PUSH2 0xA45 JUMP JUMPDEST DUP1 REVERT JUMPDEST RETURNDATASIZE SWAP2 POP PUSH2 0xC1F JUMP JUMPDEST DUP8 MLOAD RETURNDATASIZE PUSH1 0x0 DUP3 RETURNDATACOPY RETURNDATASIZE SWAP1 REVERT JUMPDEST DUP9 DUP2 DUP2 SWAP7 SWAP4 SWAP7 RETURNDATASIZE DUP4 GT PUSH2 0xCA9 JUMPI JUMPDEST PUSH2 0xC8E DUP2 DUP4 PUSH2 0x917 JUMP JUMPDEST DUP2 ADD SUB SLT PUSH2 0x19A JUMPI MLOAD SWAP1 DUP3 DUP3 AND DUP3 SUB PUSH2 0xC60 JUMPI POP SWAP3 DUP2 PUSH2 0xA18 JUMP JUMPDEST POP RETURNDATASIZE PUSH2 0xC84 JUMP INVALID LOG2 PUSH5 0x6970667358 0x22 SLT KECCAK256 PUSH10 0x84408BE24FCF84340FC3 EXTCODESIZE 0xEB 0xB3 0xB9 0xA7 0xE1 PUSH15 0xE2306F623372CFB54C7103A942CB64 PUSH20 0x6F6C634300081400330000000000000000000000 "},"methodIdentifiers":{"aavePool()":"a03e4bc3","executeArb(address,uint256,address,address,address,uint256)":"985a4378","executeOperation(address,uint256,uint256,address,bytes)":"1b11d0ff","minProfitWei()":"2dba7804","owner()":"8da5cb5b","paused()":"5c975abb","profitWallet()":"2301d775","setMinProfit(uint256)":"78400f17","setPaused(bool)":"16c38b3c","setProfitWallet(address)":"da2ca9b5","withdrawToken(address,uint256)":"9e281a98"}}}}}