{"contracts/BalancerFlashLoanReceiver.sol":{"BalancerFlashLoanReceiver":{"abi":[{"inputs":[{"internalType":"address","name":"_vault","type":"address"},{"internalType":"address","name":"_profitRecipient","type":"address"}],"stateMutability":"nonpayable","type":"constructor"},{"inputs":[{"internalType":"address","name":"owner","type":"address"}],"name":"OwnableInvalidOwner","type":"error"},{"inputs":[{"internalType":"address","name":"account","type":"address"}],"name":"OwnableUnauthorizedAccount","type":"error"},{"anonymous":false,"inputs":[{"indexed":false,"internalType":"address[]","name":"tokens","type":"address[]"},{"indexed":false,"internalType":"uint256[]","name":"amounts","type":"uint256[]"},{"indexed":false,"internalType":"uint256[]","name":"profits","type":"uint256[]"}],"name":"FlashLoanExecuted","type":"event"},{"anonymous":false,"inputs":[{"indexed":true,"internalType":"address","name":"previousOwner","type":"address"},{"indexed":true,"internalType":"address","name":"newOwner","type":"address"}],"name":"OwnershipTransferred","type":"event"},{"anonymous":false,"inputs":[{"indexed":true,"internalType":"address","name":"newRecipient","type":"address"}],"name":"ProfitRecipientUpdated","type":"event"},{"anonymous":false,"inputs":[{"indexed":true,"internalType":"address","name":"token","type":"address"},{"indexed":false,"internalType":"uint256","name":"amount","type":"uint256"}],"name":"ProfitTransferred","type":"event"},{"inputs":[{"internalType":"address","name":"token","type":"address"},{"internalType":"uint256","name":"amount","type":"uint256"}],"name":"emergencyWithdraw","outputs":[],"stateMutability":"nonpayable","type":"function"},{"inputs":[{"internalType":"address","name":"token","type":"address"}],"name":"getBalance","outputs":[{"internalType":"uint256","name":"","type":"uint256"}],"stateMutability":"view","type":"function"},{"inputs":[],"name":"owner","outputs":[{"internalType":"address","name":"","type":"address"}],"stateMutability":"view","type":"function"},{"inputs":[],"name":"profitRecipient","outputs":[{"internalType":"address","name":"","type":"address"}],"stateMutability":"view","type":"function"},{"inputs":[{"internalType":"contract IERC20[]","name":"tokens","type":"address[]"},{"internalType":"uint256[]","name":"amounts","type":"uint256[]"},{"internalType":"uint256[]","name":"feeAmounts","type":"uint256[]"},{"internalType":"bytes","name":"userData","type":"bytes"}],"name":"receiveFlashLoan","outputs":[],"stateMutability":"nonpayable","type":"function"},{"inputs":[],"name":"renounceOwnership","outputs":[],"stateMutability":"nonpayable","type":"function"},{"inputs":[{"internalType":"address","name":"_newRecipient","type":"address"}],"name":"setProfitRecipient","outputs":[],"stateMutability":"nonpayable","type":"function"},{"inputs":[{"internalType":"address","name":"newOwner","type":"address"}],"name":"transferOwnership","outputs":[],"stateMutability":"nonpayable","type":"function"},{"inputs":[],"name":"vault","outputs":[{"internalType":"contract IVault","name":"","type":"address"}],"stateMutability":"view","type":"function"},{"stateMutability":"payable","type":"receive"}],"evm":{"bytecode":{"linkReferences":{},"object":"60a0346101885761107490601f38839003908101601f19168201906001600160401b0382118383101761018d578083916040958694855283398101031261018857610055602061004e836101a3565b92016101a3565b33156101705760008054336001600160a01b03198083168217845586519590946001600160a01b03949093859391908416907f8be0079c531659141344cd1fd0a4f28419497f9722a3daafe3b4186f6b6457e09080a31693841561012e5750169182156100ea57608052600154161760015551610ebc90816101b882396080518181816099015281816102fb015261064c0152f35b835162461bcd60e51b815260206004820152601860248201527f496e76616c69642070726f66697420726563697069656e7400000000000000006044820152606490fd5b62461bcd60e51b815260206004820152601560248201527f496e76616c6964207661756c74206164647265737300000000000000000000006044820152606490fd5b8251631e4fbdf760e01b815260006004820152602490fd5b600080fd5b634e487b7160e01b600052604160045260246000fd5b51906001600160a01b03821682036101885756fe6080604052600436101561001b575b361561001957600080fd5b005b60003560e01c80634795084f14610c0b578063715018a614610bb25780637e2bad1e14610b895780638da5cb5b14610b6057806395ccea6714610ae4578063f04f2707146101eb578063f2fde38b1461015d578063f8b2cb4f146100cd5763fbfa77cf0361000e57346100c85760003660031901126100c8576040517f00000000000000000000000000000000000000000000000000000000000000006001600160a01b03168152602090f35b600080fd5b346100c8576020806003193601126100c8576024816001600160a01b036100f2610cab565b16604051928380926370a0823160e01b82523060048301525afa90811561015157600091610124575b50604051908152f35b90508181813d831161014a575b61013b8183610cc1565b810103126100c857518261011b565b503d610131565b6040513d6000823e3d90fd5b346100c85760203660031901126100c857610176610cab565b61017e610d8b565b6001600160a01b039081169081156101d257600054826bffffffffffffffffffffffff60a01b821617600055167f8be0079c531659141344cd1fd0a4f28419497f9722a3daafe3b4186f6b6457e0600080a3005b604051631e4fbdf760e01b815260006004820152602490fd5b346100c85760803660031901126100c85760043567ffffffffffffffff81116100c857366023820112156100c857806004013561022781610cf9565b916102356040519384610cc1565b8183526024602084019260051b820101903682116100c857602401915b818310610ac4578360243567ffffffffffffffff81116100c85761027a903690600401610d11565b60443567ffffffffffffffff81116100c85761029a903690600401610d11565b5060643567ffffffffffffffff81116100c857366023820112156100c8578060040135906102c782610d6f565b916102d56040519384610cc1565b808352602083019136602483830101116100c857816000926024602093018537840101527f00000000000000000000000000000000000000000000000000000000000000006001600160a01b03163303610a89578351835103610a525781518201906080838303126100c857519067ffffffffffffffff82116100c85760208101603f8385010112156100c857602082840101519161037383610cf9565b926103816040519485610cc1565b80845260208401916020840160408360051b8389010101116100c85791604083870101925b60408360051b82890101018410610a2b575050505060408301519067ffffffffffffffff82116100c85760208101603f8386010112156100c857602082850101516103f081610cf9565b926103fe6040519485610cc1565b818452602060408186019360051b8389010101930183116100c8578501604001905b828210610a1b5750505060608301516080909301516001600160a01b03811681036100c85760028351106109e7576001600160a01b038116156109b157600060206104b46001600160a01b0361047587610dc6565b511661048089610dc6565b5160405163095ea7b360e01b81526001600160a01b0387166004820152602481019190915293849283919082906044820190565b03925af19384156101515760009561050b6104f995610527948998610992575b5060405163029070a360e21b60208201526080602482015296879460a4860190610e15565b84810360231901604486015290610e52565b906064830152426084830152601f198282030182520383610cc1565b8151916020019083906001600160a01b03165af13d1561098d573d61054b81610d6f565b906105596040519283610cc1565b8152600060203d92013e5b1561095a57815161057481610cf9565b906105826040519283610cc1565b808252610591601f1991610cf9565b0136602083013760005b83518110156107785760249060206001600160a01b036105bb8388610de9565b5116604051938480926370a0823160e01b82523060048301525afa91821561015157600092610744575b506105f08185610de9565b5182106106f4576106018185610de9565b5182039182116106de576000916106188285610de9565b5260206106906001600160a01b036106308489610de9565b511661063c8488610de9565b5160405163095ea7b360e01b81527f00000000000000000000000000000000000000000000000000000000000000006001600160a01b03166004820152602481019190915294859283919082906044820190565b03925af1918215610151576106aa926106af575b50610db7565b61059b565b6106d09060203d6020116106d7575b6106c88183610cc1565b810190610dfd565b50856106a4565b503d6106be565b634e487b7160e01b600052601160045260246000fd5b60405162461bcd60e51b815260206004820152602260248201527f496e73756666696369656e742062616c616e636520666f722072657061796d656044820152611b9d60f21b6064820152608490fd5b9091506020813d602011610770575b8161076060209383610cc1565b810103126100c8575190856105e5565b3d9150610753565b5060005b835181101561088e5761078f8183610de9565b516107a3575b61079e90610db7565b61077c565b61080a9060206001600160a01b036107bb8388610de9565b516001546001600160a01b031691166107d48487610de9565b5160405163a9059cbb60e01b81526001600160a01b03909316600484015260248301529093849190829060009082906044820190565b03925af19182156101515761079e9261086f575b506001600160a01b036108318287610de9565b51167f0bde4702783cff030ae4f7e683df413b58292a45875ca051bcae5723c4d8619e60206108608487610de9565b51604051908152a29050610795565b6108879060203d6020116106d7576106c88183610cc1565b508561081e565b5082519061089b82610cf9565b916108a96040519384610cc1565b8083526108b8601f1991610cf9565b0136602084013760005b84518110156108f8576108f3906001600160a01b036108e18288610de9565b51166108ed8286610de9565b52610db7565b6108c2565b7fbabc39bef77ebbdb5e4f1f88662586aad0fbd7d03456d083203576f25dcb8430610939846109558561094789604051958695606087526060870190610e15565b908582036020870152610e52565b908382036040850152610e52565b0390a1005b60405162461bcd60e51b815260206004820152600b60248201526a14ddd85c0819985a5b195960aa1b6044820152606490fd5b610564565b6109aa9060203d6020116106d7576106c88183610cc1565b508b6104d4565b60405162461bcd60e51b815260206004820152600e60248201526d24b73b30b634b2103937baba32b960911b6044820152606490fd5b60405162461bcd60e51b815260206004820152600c60248201526b092dcecc2d8d2c840e0c2e8d60a31b6044820152606490fd5b8151815260209182019101610420565b8351916001600160a01b03831683036100c8576020816040948293520194019391506103a6565b60405162461bcd60e51b815260206004820152600f60248201526e098cadccee8d040dad2e6dac2e8c6d608b1b6044820152606490fd5b60405162461bcd60e51b81526020600482015260136024820152722ab730baba3437b934bd32b21031b0b63632b960691b6044820152606490fd5b82356001600160a01b03811681036100c857815260209283019201610252565b346100c85760403660031901126100c857610afd610cab565b610b05610d8b565b6000805460405163a9059cbb60e01b81526001600160a01b0391821660048201526024803590820152926020928492604492849291165af1801561015157610b4957005b6100199060203d81116106d7576106c88183610cc1565b346100c85760003660031901126100c8576000546040516001600160a01b039091168152602090f35b346100c85760003660031901126100c8576001546040516001600160a01b039091168152602090f35b346100c85760003660031901126100c857610bcb610d8b565b600080546001600160a01b0319811682556001600160a01b03167f8be0079c531659141344cd1fd0a4f28419497f9722a3daafe3b4186f6b6457e08280a3005b346100c85760203660031901126100c857610c24610cab565b610c2c610d8b565b6001600160a01b03168015610c7457600180546001600160a01b031916821790557f97519908572e1d17b754081a3fd2ac67644cf8cda617d672983db516e2308e7c600080a2005b60405162461bcd60e51b815260206004820152600f60248201526e496e76616c6964206164647265737360881b6044820152606490fd5b600435906001600160a01b03821682036100c857565b90601f8019910116810190811067ffffffffffffffff821117610ce357604052565b634e487b7160e01b600052604160045260246000fd5b67ffffffffffffffff8111610ce35760051b60200190565b81601f820112156100c857803591610d2883610cf9565b92610d366040519485610cc1565b808452602092838086019260051b8201019283116100c8578301905b828210610d60575050505090565b81358152908301908301610d52565b67ffffffffffffffff8111610ce357601f01601f191660200190565b6000546001600160a01b03163303610d9f57565b60405163118cdaa760e01b8152336004820152602490fd5b60001981146106de5760010190565b805115610dd35760200190565b634e487b7160e01b600052603260045260246000fd5b8051821015610dd35760209160051b010190565b908160209103126100c8575180151581036100c85790565b90815180825260208080930193019160005b828110610e35575050505090565b83516001600160a01b031685529381019392810192600101610e27565b90815180825260208080930193019160005b828110610e72575050505090565b835185529381019392810192600101610e6456fea2646970667358221220ccc8f6109d4a406b9c371060fc2ca78c83faf2d89e788f605a9568ed5ea64e8264736f6c63430008140033","opcodes":"PUSH1 0xA0 CALLVALUE PUSH2 0x188 JUMPI PUSH2 0x1074 SWAP1 PUSH1 0x1F CODESIZE DUP4 SWAP1 SUB SWAP1 DUP2 ADD PUSH1 0x1F NOT AND DUP3 ADD SWAP1 PUSH1 0x1 PUSH1 0x1 PUSH1 0x40 SHL SUB DUP3 GT DUP4 DUP4 LT OR PUSH2 0x18D JUMPI DUP1 DUP4 SWAP2 PUSH1 0x40 SWAP6 DUP7 SWAP5 DUP6 MSTORE DUP4 CODECOPY DUP2 ADD SUB SLT PUSH2 0x188 JUMPI PUSH2 0x55 PUSH1 0x20 PUSH2 0x4E DUP4 PUSH2 0x1A3 JUMP JUMPDEST SWAP3 ADD PUSH2 0x1A3 JUMP JUMPDEST CALLER ISZERO PUSH2 0x170 JUMPI PUSH1 0x0 DUP1 SLOAD CALLER PUSH1 0x1 PUSH1 0x1 PUSH1 0xA0 SHL SUB NOT DUP1 DUP4 AND DUP3 OR DUP5 SSTORE DUP7 MLOAD SWAP6 SWAP1 SWAP5 PUSH1 0x1 PUSH1 0x1 PUSH1 0xA0 SHL SUB SWAP5 SWAP1 SWAP4 DUP6 SWAP4 SWAP2 SWAP1 DUP5 AND SWAP1 PUSH32 0x8BE0079C531659141344CD1FD0A4F28419497F9722A3DAAFE3B4186F6B6457E0 SWAP1 DUP1 LOG3 AND SWAP4 DUP5 ISZERO PUSH2 0x12E JUMPI POP AND SWAP2 DUP3 ISZERO PUSH2 0xEA JUMPI PUSH1 0x80 MSTORE PUSH1 0x1 SLOAD AND OR PUSH1 0x1 SSTORE MLOAD PUSH2 0xEBC SWAP1 DUP2 PUSH2 0x1B8 DUP3 CODECOPY PUSH1 0x80 MLOAD DUP2 DUP2 DUP2 PUSH1 0x99 ADD MSTORE DUP2 DUP2 PUSH2 0x2FB ADD MSTORE PUSH2 0x64C ADD MSTORE RETURN JUMPDEST DUP4 MLOAD PUSH3 0x461BCD PUSH1 0xE5 SHL DUP2 MSTORE PUSH1 0x20 PUSH1 0x4 DUP3 ADD MSTORE PUSH1 0x18 PUSH1 0x24 DUP3 ADD MSTORE PUSH32 0x496E76616C69642070726F66697420726563697069656E740000000000000000 PUSH1 0x44 DUP3 ADD MSTORE PUSH1 0x64 SWAP1 REVERT JUMPDEST PUSH3 0x461BCD PUSH1 0xE5 SHL DUP2 MSTORE PUSH1 0x20 PUSH1 0x4 DUP3 ADD MSTORE PUSH1 0x15 PUSH1 0x24 DUP3 ADD MSTORE PUSH32 0x496E76616C6964207661756C7420616464726573730000000000000000000000 PUSH1 0x44 DUP3 ADD MSTORE PUSH1 0x64 SWAP1 REVERT JUMPDEST DUP3 MLOAD PUSH4 0x1E4FBDF7 PUSH1 0xE0 SHL DUP2 MSTORE PUSH1 0x0 PUSH1 0x4 DUP3 ADD MSTORE PUSH1 0x24 SWAP1 REVERT JUMPDEST PUSH1 0x0 DUP1 REVERT JUMPDEST PUSH4 0x4E487B71 PUSH1 0xE0 SHL PUSH1 0x0 MSTORE PUSH1 0x41 PUSH1 0x4 MSTORE PUSH1 0x24 PUSH1 0x0 REVERT JUMPDEST MLOAD SWAP1 PUSH1 0x1 PUSH1 0x1 PUSH1 0xA0 SHL SUB DUP3 AND DUP3 SUB PUSH2 0x188 JUMPI JUMP INVALID PUSH1 0x80 PUSH1 0x40 MSTORE PUSH1 0x4 CALLDATASIZE LT ISZERO PUSH2 0x1B JUMPI JUMPDEST CALLDATASIZE ISZERO PUSH2 0x19 JUMPI PUSH1 0x0 DUP1 REVERT JUMPDEST STOP JUMPDEST PUSH1 0x0 CALLDATALOAD PUSH1 0xE0 SHR DUP1 PUSH4 0x4795084F EQ PUSH2 0xC0B JUMPI DUP1 PUSH4 0x715018A6 EQ PUSH2 0xBB2 JUMPI DUP1 PUSH4 0x7E2BAD1E EQ PUSH2 0xB89 JUMPI DUP1 PUSH4 0x8DA5CB5B EQ PUSH2 0xB60 JUMPI DUP1 PUSH4 0x95CCEA67 EQ PUSH2 0xAE4 JUMPI DUP1 PUSH4 0xF04F2707 EQ PUSH2 0x1EB JUMPI DUP1 PUSH4 0xF2FDE38B EQ PUSH2 0x15D JUMPI DUP1 PUSH4 0xF8B2CB4F EQ PUSH2 0xCD JUMPI PUSH4 0xFBFA77CF SUB PUSH2 0xE JUMPI CALLVALUE PUSH2 0xC8 JUMPI PUSH1 0x0 CALLDATASIZE PUSH1 0x3 NOT ADD SLT PUSH2 0xC8 JUMPI PUSH1 0x40 MLOAD PUSH32 0x0 PUSH1 0x1 PUSH1 0x1 PUSH1 0xA0 SHL SUB AND DUP2 MSTORE PUSH1 0x20 SWAP1 RETURN JUMPDEST PUSH1 0x0 DUP1 REVERT JUMPDEST CALLVALUE PUSH2 0xC8 JUMPI PUSH1 0x20 DUP1 PUSH1 0x3 NOT CALLDATASIZE ADD SLT PUSH2 0xC8 JUMPI PUSH1 0x24 DUP2 PUSH1 0x1 PUSH1 0x1 PUSH1 0xA0 SHL SUB PUSH2 0xF2 PUSH2 0xCAB JUMP JUMPDEST AND PUSH1 0x40 MLOAD SWAP3 DUP4 DUP1 SWAP3 PUSH4 0x70A08231 PUSH1 0xE0 SHL DUP3 MSTORE ADDRESS PUSH1 0x4 DUP4 ADD MSTORE GAS STATICCALL SWAP1 DUP2 ISZERO PUSH2 0x151 JUMPI PUSH1 0x0 SWAP2 PUSH2 0x124 JUMPI JUMPDEST POP PUSH1 0x40 MLOAD SWAP1 DUP2 MSTORE RETURN JUMPDEST SWAP1 POP DUP2 DUP2 DUP2 RETURNDATASIZE DUP4 GT PUSH2 0x14A JUMPI JUMPDEST PUSH2 0x13B DUP2 DUP4 PUSH2 0xCC1 JUMP JUMPDEST DUP2 ADD SUB SLT PUSH2 0xC8 JUMPI MLOAD DUP3 PUSH2 0x11B JUMP JUMPDEST POP RETURNDATASIZE PUSH2 0x131 JUMP JUMPDEST PUSH1 0x40 MLOAD RETURNDATASIZE PUSH1 0x0 DUP3 RETURNDATACOPY RETURNDATASIZE SWAP1 REVERT JUMPDEST CALLVALUE PUSH2 0xC8 JUMPI PUSH1 0x20 CALLDATASIZE PUSH1 0x3 NOT ADD SLT PUSH2 0xC8 JUMPI PUSH2 0x176 PUSH2 0xCAB JUMP JUMPDEST PUSH2 0x17E PUSH2 0xD8B JUMP JUMPDEST PUSH1 0x1 PUSH1 0x1 PUSH1 0xA0 SHL SUB SWAP1 DUP2 AND SWAP1 DUP2 ISZERO PUSH2 0x1D2 JUMPI PUSH1 0x0 SLOAD DUP3 PUSH12 0xFFFFFFFFFFFFFFFFFFFFFFFF PUSH1 0xA0 SHL DUP3 AND OR PUSH1 0x0 SSTORE AND PUSH32 0x8BE0079C531659141344CD1FD0A4F28419497F9722A3DAAFE3B4186F6B6457E0 PUSH1 0x0 DUP1 LOG3 STOP JUMPDEST PUSH1 0x40 MLOAD PUSH4 0x1E4FBDF7 PUSH1 0xE0 SHL DUP2 MSTORE PUSH1 0x0 PUSH1 0x4 DUP3 ADD MSTORE PUSH1 0x24 SWAP1 REVERT JUMPDEST CALLVALUE PUSH2 0xC8 JUMPI PUSH1 0x80 CALLDATASIZE PUSH1 0x3 NOT ADD SLT PUSH2 0xC8 JUMPI PUSH1 0x4 CALLDATALOAD PUSH8 0xFFFFFFFFFFFFFFFF DUP2 GT PUSH2 0xC8 JUMPI CALLDATASIZE PUSH1 0x23 DUP3 ADD SLT ISZERO PUSH2 0xC8 JUMPI DUP1 PUSH1 0x4 ADD CALLDATALOAD PUSH2 0x227 DUP2 PUSH2 0xCF9 JUMP JUMPDEST SWAP2 PUSH2 0x235 PUSH1 0x40 MLOAD SWAP4 DUP5 PUSH2 0xCC1 JUMP JUMPDEST DUP2 DUP4 MSTORE PUSH1 0x24 PUSH1 0x20 DUP5 ADD SWAP3 PUSH1 0x5 SHL DUP3 ADD ADD SWAP1 CALLDATASIZE DUP3 GT PUSH2 0xC8 JUMPI PUSH1 0x24 ADD SWAP2 JUMPDEST DUP2 DUP4 LT PUSH2 0xAC4 JUMPI DUP4 PUSH1 0x24 CALLDATALOAD PUSH8 0xFFFFFFFFFFFFFFFF DUP2 GT PUSH2 0xC8 JUMPI PUSH2 0x27A SWAP1 CALLDATASIZE SWAP1 PUSH1 0x4 ADD PUSH2 0xD11 JUMP JUMPDEST PUSH1 0x44 CALLDATALOAD PUSH8 0xFFFFFFFFFFFFFFFF DUP2 GT PUSH2 0xC8 JUMPI PUSH2 0x29A SWAP1 CALLDATASIZE SWAP1 PUSH1 0x4 ADD PUSH2 0xD11 JUMP JUMPDEST POP PUSH1 0x64 CALLDATALOAD PUSH8 0xFFFFFFFFFFFFFFFF DUP2 GT PUSH2 0xC8 JUMPI CALLDATASIZE PUSH1 0x23 DUP3 ADD SLT ISZERO PUSH2 0xC8 JUMPI DUP1 PUSH1 0x4 ADD CALLDATALOAD SWAP1 PUSH2 0x2C7 DUP3 PUSH2 0xD6F JUMP JUMPDEST SWAP2 PUSH2 0x2D5 PUSH1 0x40 MLOAD SWAP4 DUP5 PUSH2 0xCC1 JUMP JUMPDEST DUP1 DUP4 MSTORE PUSH1 0x20 DUP4 ADD SWAP2 CALLDATASIZE PUSH1 0x24 DUP4 DUP4 ADD ADD GT PUSH2 0xC8 JUMPI DUP2 PUSH1 0x0 SWAP3 PUSH1 0x24 PUSH1 0x20 SWAP4 ADD DUP6 CALLDATACOPY DUP5 ADD ADD MSTORE PUSH32 0x0 PUSH1 0x1 PUSH1 0x1 PUSH1 0xA0 SHL SUB AND CALLER SUB PUSH2 0xA89 JUMPI DUP4 MLOAD DUP4 MLOAD SUB PUSH2 0xA52 JUMPI DUP2 MLOAD DUP3 ADD SWAP1 PUSH1 0x80 DUP4 DUP4 SUB SLT PUSH2 0xC8 JUMPI MLOAD SWAP1 PUSH8 0xFFFFFFFFFFFFFFFF DUP3 GT PUSH2 0xC8 JUMPI PUSH1 0x20 DUP2 ADD PUSH1 0x3F DUP4 DUP6 ADD ADD SLT ISZERO PUSH2 0xC8 JUMPI PUSH1 0x20 DUP3 DUP5 ADD ADD MLOAD SWAP2 PUSH2 0x373 DUP4 PUSH2 0xCF9 JUMP JUMPDEST SWAP3 PUSH2 0x381 PUSH1 0x40 MLOAD SWAP5 DUP6 PUSH2 0xCC1 JUMP JUMPDEST DUP1 DUP5 MSTORE PUSH1 0x20 DUP5 ADD SWAP2 PUSH1 0x20 DUP5 ADD PUSH1 0x40 DUP4 PUSH1 0x5 SHL DUP4 DUP10 ADD ADD ADD GT PUSH2 0xC8 JUMPI SWAP2 PUSH1 0x40 DUP4 DUP8 ADD ADD SWAP3 JUMPDEST PUSH1 0x40 DUP4 PUSH1 0x5 SHL DUP3 DUP10 ADD ADD ADD DUP5 LT PUSH2 0xA2B JUMPI POP POP POP POP PUSH1 0x40 DUP4 ADD MLOAD SWAP1 PUSH8 0xFFFFFFFFFFFFFFFF DUP3 GT PUSH2 0xC8 JUMPI PUSH1 0x20 DUP2 ADD PUSH1 0x3F DUP4 DUP7 ADD ADD SLT ISZERO PUSH2 0xC8 JUMPI PUSH1 0x20 DUP3 DUP6 ADD ADD MLOAD PUSH2 0x3F0 DUP2 PUSH2 0xCF9 JUMP JUMPDEST SWAP3 PUSH2 0x3FE PUSH1 0x40 MLOAD SWAP5 DUP6 PUSH2 0xCC1 JUMP JUMPDEST DUP2 DUP5 MSTORE PUSH1 0x20 PUSH1 0x40 DUP2 DUP7 ADD SWAP4 PUSH1 0x5 SHL DUP4 DUP10 ADD ADD ADD SWAP4 ADD DUP4 GT PUSH2 0xC8 JUMPI DUP6 ADD PUSH1 0x40 ADD SWAP1 JUMPDEST DUP3 DUP3 LT PUSH2 0xA1B JUMPI POP POP POP PUSH1 0x60 DUP4 ADD MLOAD PUSH1 0x80 SWAP1 SWAP4 ADD MLOAD PUSH1 0x1 PUSH1 0x1 PUSH1 0xA0 SHL SUB DUP2 AND DUP2 SUB PUSH2 0xC8 JUMPI PUSH1 0x2 DUP4 MLOAD LT PUSH2 0x9E7 JUMPI PUSH1 0x1 PUSH1 0x1 PUSH1 0xA0 SHL SUB DUP2 AND ISZERO PUSH2 0x9B1 JUMPI PUSH1 0x0 PUSH1 0x20 PUSH2 0x4B4 PUSH1 0x1 PUSH1 0x1 PUSH1 0xA0 SHL SUB PUSH2 0x475 DUP8 PUSH2 0xDC6 JUMP JUMPDEST MLOAD AND PUSH2 0x480 DUP10 PUSH2 0xDC6 JUMP JUMPDEST MLOAD PUSH1 0x40 MLOAD PUSH4 0x95EA7B3 PUSH1 0xE0 SHL DUP2 MSTORE PUSH1 0x1 PUSH1 0x1 PUSH1 0xA0 SHL SUB DUP8 AND PUSH1 0x4 DUP3 ADD MSTORE PUSH1 0x24 DUP2 ADD SWAP2 SWAP1 SWAP2 MSTORE SWAP4 DUP5 SWAP3 DUP4 SWAP2 SWAP1 DUP3 SWAP1 PUSH1 0x44 DUP3 ADD SWAP1 JUMP JUMPDEST SUB SWAP3 GAS CALL SWAP4 DUP5 ISZERO PUSH2 0x151 JUMPI PUSH1 0x0 SWAP6 PUSH2 0x50B PUSH2 0x4F9 SWAP6 PUSH2 0x527 SWAP5 DUP10 SWAP9 PUSH2 0x992 JUMPI JUMPDEST POP PUSH1 0x40 MLOAD PUSH4 0x29070A3 PUSH1 0xE2 SHL PUSH1 0x20 DUP3 ADD MSTORE PUSH1 0x80 PUSH1 0x24 DUP3 ADD MSTORE SWAP7 DUP8 SWAP5 PUSH1 0xA4 DUP7 ADD SWAP1 PUSH2 0xE15 JUMP JUMPDEST DUP5 DUP2 SUB PUSH1 0x23 NOT ADD PUSH1 0x44 DUP7 ADD MSTORE SWAP1 PUSH2 0xE52 JUMP JUMPDEST SWAP1 PUSH1 0x64 DUP4 ADD MSTORE TIMESTAMP PUSH1 0x84 DUP4 ADD MSTORE PUSH1 0x1F NOT DUP3 DUP3 SUB ADD DUP3 MSTORE SUB DUP4 PUSH2 0xCC1 JUMP JUMPDEST DUP2 MLOAD SWAP2 PUSH1 0x20 ADD SWAP1 DUP4 SWAP1 PUSH1 0x1 PUSH1 0x1 PUSH1 0xA0 SHL SUB AND GAS CALL RETURNDATASIZE ISZERO PUSH2 0x98D JUMPI RETURNDATASIZE PUSH2 0x54B DUP2 PUSH2 0xD6F JUMP JUMPDEST SWAP1 PUSH2 0x559 PUSH1 0x40 MLOAD SWAP3 DUP4 PUSH2 0xCC1 JUMP JUMPDEST DUP2 MSTORE PUSH1 0x0 PUSH1 0x20 RETURNDATASIZE SWAP3 ADD RETURNDATACOPY JUMPDEST ISZERO PUSH2 0x95A JUMPI DUP2 MLOAD PUSH2 0x574 DUP2 PUSH2 0xCF9 JUMP JUMPDEST SWAP1 PUSH2 0x582 PUSH1 0x40 MLOAD SWAP3 DUP4 PUSH2 0xCC1 JUMP JUMPDEST DUP1 DUP3 MSTORE PUSH2 0x591 PUSH1 0x1F NOT SWAP2 PUSH2 0xCF9 JUMP JUMPDEST ADD CALLDATASIZE PUSH1 0x20 DUP4 ADD CALLDATACOPY PUSH1 0x0 JUMPDEST DUP4 MLOAD DUP2 LT ISZERO PUSH2 0x778 JUMPI PUSH1 0x24 SWAP1 PUSH1 0x20 PUSH1 0x1 PUSH1 0x1 PUSH1 0xA0 SHL SUB PUSH2 0x5BB DUP4 DUP9 PUSH2 0xDE9 JUMP JUMPDEST MLOAD AND PUSH1 0x40 MLOAD SWAP4 DUP5 DUP1 SWAP3 PUSH4 0x70A08231 PUSH1 0xE0 SHL DUP3 MSTORE ADDRESS PUSH1 0x4 DUP4 ADD MSTORE GAS STATICCALL SWAP2 DUP3 ISZERO PUSH2 0x151 JUMPI PUSH1 0x0 SWAP3 PUSH2 0x744 JUMPI JUMPDEST POP PUSH2 0x5F0 DUP2 DUP6 PUSH2 0xDE9 JUMP JUMPDEST MLOAD DUP3 LT PUSH2 0x6F4 JUMPI PUSH2 0x601 DUP2 DUP6 PUSH2 0xDE9 JUMP JUMPDEST MLOAD DUP3 SUB SWAP2 DUP3 GT PUSH2 0x6DE JUMPI PUSH1 0x0 SWAP2 PUSH2 0x618 DUP3 DUP6 PUSH2 0xDE9 JUMP JUMPDEST MSTORE PUSH1 0x20 PUSH2 0x690 PUSH1 0x1 PUSH1 0x1 PUSH1 0xA0 SHL SUB PUSH2 0x630 DUP5 DUP10 PUSH2 0xDE9 JUMP JUMPDEST MLOAD AND PUSH2 0x63C DUP5 DUP9 PUSH2 0xDE9 JUMP JUMPDEST MLOAD PUSH1 0x40 MLOAD PUSH4 0x95EA7B3 PUSH1 0xE0 SHL DUP2 MSTORE PUSH32 0x0 PUSH1 0x1 PUSH1 0x1 PUSH1 0xA0 SHL SUB AND PUSH1 0x4 DUP3 ADD MSTORE PUSH1 0x24 DUP2 ADD SWAP2 SWAP1 SWAP2 MSTORE SWAP5 DUP6 SWAP3 DUP4 SWAP2 SWAP1 DUP3 SWAP1 PUSH1 0x44 DUP3 ADD SWAP1 JUMP JUMPDEST SUB SWAP3 GAS CALL SWAP2 DUP3 ISZERO PUSH2 0x151 JUMPI PUSH2 0x6AA SWAP3 PUSH2 0x6AF JUMPI JUMPDEST POP PUSH2 0xDB7 JUMP JUMPDEST PUSH2 0x59B JUMP JUMPDEST PUSH2 0x6D0 SWAP1 PUSH1 0x20 RETURNDATASIZE PUSH1 0x20 GT PUSH2 0x6D7 JUMPI JUMPDEST PUSH2 0x6C8 DUP2 DUP4 PUSH2 0xCC1 JUMP JUMPDEST DUP2 ADD SWAP1 PUSH2 0xDFD JUMP JUMPDEST POP DUP6 PUSH2 0x6A4 JUMP JUMPDEST POP RETURNDATASIZE PUSH2 0x6BE JUMP JUMPDEST PUSH4 0x4E487B71 PUSH1 0xE0 SHL PUSH1 0x0 MSTORE PUSH1 0x11 PUSH1 0x4 MSTORE PUSH1 0x24 PUSH1 0x0 REVERT JUMPDEST PUSH1 0x40 MLOAD PUSH3 0x461BCD PUSH1 0xE5 SHL DUP2 MSTORE PUSH1 0x20 PUSH1 0x4 DUP3 ADD MSTORE PUSH1 0x22 PUSH1 0x24 DUP3 ADD MSTORE PUSH32 0x496E73756666696369656E742062616C616E636520666F722072657061796D65 PUSH1 0x44 DUP3 ADD MSTORE PUSH2 0x1B9D PUSH1 0xF2 SHL PUSH1 0x64 DUP3 ADD MSTORE PUSH1 0x84 SWAP1 REVERT JUMPDEST SWAP1 SWAP2 POP PUSH1 0x20 DUP2 RETURNDATASIZE PUSH1 0x20 GT PUSH2 0x770 JUMPI JUMPDEST DUP2 PUSH2 0x760 PUSH1 0x20 SWAP4 DUP4 PUSH2 0xCC1 JUMP JUMPDEST DUP2 ADD SUB SLT PUSH2 0xC8 JUMPI MLOAD SWAP1 DUP6 PUSH2 0x5E5 JUMP JUMPDEST RETURNDATASIZE SWAP2 POP PUSH2 0x753 JUMP JUMPDEST POP PUSH1 0x0 JUMPDEST DUP4 MLOAD DUP2 LT ISZERO PUSH2 0x88E JUMPI PUSH2 0x78F DUP2 DUP4 PUSH2 0xDE9 JUMP JUMPDEST MLOAD PUSH2 0x7A3 JUMPI JUMPDEST PUSH2 0x79E SWAP1 PUSH2 0xDB7 JUMP JUMPDEST PUSH2 0x77C JUMP JUMPDEST PUSH2 0x80A SWAP1 PUSH1 0x20 PUSH1 0x1 PUSH1 0x1 PUSH1 0xA0 SHL SUB PUSH2 0x7BB DUP4 DUP9 PUSH2 0xDE9 JUMP JUMPDEST MLOAD PUSH1 0x1 SLOAD PUSH1 0x1 PUSH1 0x1 PUSH1 0xA0 SHL SUB AND SWAP2 AND PUSH2 0x7D4 DUP5 DUP8 PUSH2 0xDE9 JUMP JUMPDEST MLOAD PUSH1 0x40 MLOAD PUSH4 0xA9059CBB PUSH1 0xE0 SHL DUP2 MSTORE PUSH1 0x1 PUSH1 0x1 PUSH1 0xA0 SHL SUB SWAP1 SWAP4 AND PUSH1 0x4 DUP5 ADD MSTORE PUSH1 0x24 DUP4 ADD MSTORE SWAP1 SWAP4 DUP5 SWAP2 SWAP1 DUP3 SWAP1 PUSH1 0x0 SWAP1 DUP3 SWAP1 PUSH1 0x44 DUP3 ADD SWAP1 JUMP JUMPDEST SUB SWAP3 GAS CALL SWAP2 DUP3 ISZERO PUSH2 0x151 JUMPI PUSH2 0x79E SWAP3 PUSH2 0x86F JUMPI JUMPDEST POP PUSH1 0x1 PUSH1 0x1 PUSH1 0xA0 SHL SUB PUSH2 0x831 DUP3 DUP8 PUSH2 0xDE9 JUMP JUMPDEST MLOAD AND PUSH32 0xBDE4702783CFF030AE4F7E683DF413B58292A45875CA051BCAE5723C4D8619E PUSH1 0x20 PUSH2 0x860 DUP5 DUP8 PUSH2 0xDE9 JUMP JUMPDEST MLOAD PUSH1 0x40 MLOAD SWAP1 DUP2 MSTORE LOG2 SWAP1 POP PUSH2 0x795 JUMP JUMPDEST PUSH2 0x887 SWAP1 PUSH1 0x20 RETURNDATASIZE PUSH1 0x20 GT PUSH2 0x6D7 JUMPI PUSH2 0x6C8 DUP2 DUP4 PUSH2 0xCC1 JUMP JUMPDEST POP DUP6 PUSH2 0x81E JUMP JUMPDEST POP DUP3 MLOAD SWAP1 PUSH2 0x89B DUP3 PUSH2 0xCF9 JUMP JUMPDEST SWAP2 PUSH2 0x8A9 PUSH1 0x40 MLOAD SWAP4 DUP5 PUSH2 0xCC1 JUMP JUMPDEST DUP1 DUP4 MSTORE PUSH2 0x8B8 PUSH1 0x1F NOT SWAP2 PUSH2 0xCF9 JUMP JUMPDEST ADD CALLDATASIZE PUSH1 0x20 DUP5 ADD CALLDATACOPY PUSH1 0x0 JUMPDEST DUP5 MLOAD DUP2 LT ISZERO PUSH2 0x8F8 JUMPI PUSH2 0x8F3 SWAP1 PUSH1 0x1 PUSH1 0x1 PUSH1 0xA0 SHL SUB PUSH2 0x8E1 DUP3 DUP9 PUSH2 0xDE9 JUMP JUMPDEST MLOAD AND PUSH2 0x8ED DUP3 DUP7 PUSH2 0xDE9 JUMP JUMPDEST MSTORE PUSH2 0xDB7 JUMP JUMPDEST PUSH2 0x8C2 JUMP JUMPDEST PUSH32 0xBABC39BEF77EBBDB5E4F1F88662586AAD0FBD7D03456D083203576F25DCB8430 PUSH2 0x939 DUP5 PUSH2 0x955 DUP6 PUSH2 0x947 DUP10 PUSH1 0x40 MLOAD SWAP6 DUP7 SWAP6 PUSH1 0x60 DUP8 MSTORE PUSH1 0x60 DUP8 ADD SWAP1 PUSH2 0xE15 JUMP JUMPDEST SWAP1 DUP6 DUP3 SUB PUSH1 0x20 DUP8 ADD MSTORE PUSH2 0xE52 JUMP JUMPDEST SWAP1 DUP4 DUP3 SUB PUSH1 0x40 DUP6 ADD MSTORE PUSH2 0xE52 JUMP JUMPDEST SUB SWAP1 LOG1 STOP JUMPDEST PUSH1 0x40 MLOAD PUSH3 0x461BCD PUSH1 0xE5 SHL DUP2 MSTORE PUSH1 0x20 PUSH1 0x4 DUP3 ADD MSTORE PUSH1 0xB PUSH1 0x24 DUP3 ADD MSTORE PUSH11 0x14DDD85C0819985A5B1959 PUSH1 0xAA SHL PUSH1 0x44 DUP3 ADD MSTORE PUSH1 0x64 SWAP1 REVERT JUMPDEST PUSH2 0x564 JUMP JUMPDEST PUSH2 0x9AA SWAP1 PUSH1 0x20 RETURNDATASIZE PUSH1 0x20 GT PUSH2 0x6D7 JUMPI PUSH2 0x6C8 DUP2 DUP4 PUSH2 0xCC1 JUMP JUMPDEST POP DUP12 PUSH2 0x4D4 JUMP JUMPDEST PUSH1 0x40 MLOAD PUSH3 0x461BCD PUSH1 0xE5 SHL DUP2 MSTORE PUSH1 0x20 PUSH1 0x4 DUP3 ADD MSTORE PUSH1 0xE PUSH1 0x24 DUP3 ADD MSTORE PUSH14 0x24B73B30B634B2103937BABA32B9 PUSH1 0x91 SHL PUSH1 0x44 DUP3 ADD MSTORE PUSH1 0x64 SWAP1 REVERT JUMPDEST PUSH1 0x40 MLOAD PUSH3 0x461BCD PUSH1 0xE5 SHL DUP2 MSTORE PUSH1 0x20 PUSH1 0x4 DUP3 ADD MSTORE PUSH1 0xC PUSH1 0x24 DUP3 ADD MSTORE PUSH12 0x92DCECC2D8D2C840E0C2E8D PUSH1 0xA3 SHL PUSH1 0x44 DUP3 ADD MSTORE PUSH1 0x64 SWAP1 REVERT JUMPDEST DUP2 MLOAD DUP2 MSTORE PUSH1 0x20 SWAP2 DUP3 ADD SWAP2 ADD PUSH2 0x420 JUMP JUMPDEST DUP4 MLOAD SWAP2 PUSH1 0x1 PUSH1 0x1 PUSH1 0xA0 SHL SUB DUP4 AND DUP4 SUB PUSH2 0xC8 JUMPI PUSH1 0x20 DUP2 PUSH1 0x40 SWAP5 DUP3 SWAP4 MSTORE ADD SWAP5 ADD SWAP4 SWAP2 POP PUSH2 0x3A6 JUMP JUMPDEST PUSH1 0x40 MLOAD PUSH3 0x461BCD PUSH1 0xE5 SHL DUP2 MSTORE PUSH1 0x20 PUSH1 0x4 DUP3 ADD MSTORE PUSH1 0xF PUSH1 0x24 DUP3 ADD MSTORE PUSH15 0x98CADCCEE8D040DAD2E6DAC2E8C6D PUSH1 0x8B SHL PUSH1 0x44 DUP3 ADD MSTORE PUSH1 0x64 SWAP1 REVERT JUMPDEST PUSH1 0x40 MLOAD PUSH3 0x461BCD PUSH1 0xE5 SHL DUP2 MSTORE PUSH1 0x20 PUSH1 0x4 DUP3 ADD MSTORE PUSH1 0x13 PUSH1 0x24 DUP3 ADD MSTORE PUSH19 0x2AB730BABA3437B934BD32B21031B0B63632B9 PUSH1 0x69 SHL PUSH1 0x44 DUP3 ADD MSTORE PUSH1 0x64 SWAP1 REVERT JUMPDEST DUP3 CALLDATALOAD PUSH1 0x1 PUSH1 0x1 PUSH1 0xA0 SHL SUB DUP2 AND DUP2 SUB PUSH2 0xC8 JUMPI DUP2 MSTORE PUSH1 0x20 SWAP3 DUP4 ADD SWAP3 ADD PUSH2 0x252 JUMP JUMPDEST CALLVALUE PUSH2 0xC8 JUMPI PUSH1 0x40 CALLDATASIZE PUSH1 0x3 NOT ADD SLT PUSH2 0xC8 JUMPI PUSH2 0xAFD PUSH2 0xCAB JUMP JUMPDEST PUSH2 0xB05 PUSH2 0xD8B JUMP JUMPDEST PUSH1 0x0 DUP1 SLOAD PUSH1 0x40 MLOAD PUSH4 0xA9059CBB PUSH1 0xE0 SHL DUP2 MSTORE PUSH1 0x1 PUSH1 0x1 PUSH1 0xA0 SHL SUB SWAP2 DUP3 AND PUSH1 0x4 DUP3 ADD MSTORE PUSH1 0x24 DUP1 CALLDATALOAD SWAP1 DUP3 ADD MSTORE SWAP3 PUSH1 0x20 SWAP3 DUP5 SWAP3 PUSH1 0x44 SWAP3 DUP5 SWAP3 SWAP2 AND GAS CALL DUP1 ISZERO PUSH2 0x151 JUMPI PUSH2 0xB49 JUMPI STOP JUMPDEST PUSH2 0x19 SWAP1 PUSH1 0x20 RETURNDATASIZE DUP2 GT PUSH2 0x6D7 JUMPI PUSH2 0x6C8 DUP2 DUP4 PUSH2 0xCC1 JUMP JUMPDEST CALLVALUE PUSH2 0xC8 JUMPI PUSH1 0x0 CALLDATASIZE PUSH1 0x3 NOT ADD SLT PUSH2 0xC8 JUMPI PUSH1 0x0 SLOAD PUSH1 0x40 MLOAD PUSH1 0x1 PUSH1 0x1 PUSH1 0xA0 SHL SUB SWAP1 SWAP2 AND DUP2 MSTORE PUSH1 0x20 SWAP1 RETURN JUMPDEST CALLVALUE PUSH2 0xC8 JUMPI PUSH1 0x0 CALLDATASIZE PUSH1 0x3 NOT ADD SLT PUSH2 0xC8 JUMPI PUSH1 0x1 SLOAD PUSH1 0x40 MLOAD PUSH1 0x1 PUSH1 0x1 PUSH1 0xA0 SHL SUB SWAP1 SWAP2 AND DUP2 MSTORE PUSH1 0x20 SWAP1 RETURN JUMPDEST CALLVALUE PUSH2 0xC8 JUMPI PUSH1 0x0 CALLDATASIZE PUSH1 0x3 NOT ADD SLT PUSH2 0xC8 JUMPI PUSH2 0xBCB PUSH2 0xD8B JUMP JUMPDEST PUSH1 0x0 DUP1 SLOAD PUSH1 0x1 PUSH1 0x1 PUSH1 0xA0 SHL SUB NOT DUP2 AND DUP3 SSTORE PUSH1 0x1 PUSH1 0x1 PUSH1 0xA0 SHL SUB AND PUSH32 0x8BE0079C531659141344CD1FD0A4F28419497F9722A3DAAFE3B4186F6B6457E0 DUP3 DUP1 LOG3 STOP JUMPDEST CALLVALUE PUSH2 0xC8 JUMPI PUSH1 0x20 CALLDATASIZE PUSH1 0x3 NOT ADD SLT PUSH2 0xC8 JUMPI PUSH2 0xC24 PUSH2 0xCAB JUMP JUMPDEST PUSH2 0xC2C PUSH2 0xD8B JUMP JUMPDEST PUSH1 0x1 PUSH1 0x1 PUSH1 0xA0 SHL SUB AND DUP1 ISZERO PUSH2 0xC74 JUMPI PUSH1 0x1 DUP1 SLOAD PUSH1 0x1 PUSH1 0x1 PUSH1 0xA0 SHL SUB NOT AND DUP3 OR SWAP1 SSTORE PUSH32 0x97519908572E1D17B754081A3FD2AC67644CF8CDA617D672983DB516E2308E7C PUSH1 0x0 DUP1 LOG2 STOP JUMPDEST PUSH1 0x40 MLOAD PUSH3 0x461BCD PUSH1 0xE5 SHL DUP2 MSTORE PUSH1 0x20 PUSH1 0x4 DUP3 ADD MSTORE PUSH1 0xF PUSH1 0x24 DUP3 ADD MSTORE PUSH15 0x496E76616C69642061646472657373 PUSH1 0x88 SHL PUSH1 0x44 DUP3 ADD MSTORE PUSH1 0x64 SWAP1 REVERT JUMPDEST PUSH1 0x4 CALLDATALOAD SWAP1 PUSH1 0x1 PUSH1 0x1 PUSH1 0xA0 SHL SUB DUP3 AND DUP3 SUB PUSH2 0xC8 JUMPI JUMP JUMPDEST SWAP1 PUSH1 0x1F DUP1 NOT SWAP2 ADD AND DUP2 ADD SWAP1 DUP2 LT PUSH8 0xFFFFFFFFFFFFFFFF DUP3 GT OR PUSH2 0xCE3 JUMPI PUSH1 0x40 MSTORE JUMP JUMPDEST PUSH4 0x4E487B71 PUSH1 0xE0 SHL PUSH1 0x0 MSTORE PUSH1 0x41 PUSH1 0x4 MSTORE PUSH1 0x24 PUSH1 0x0 REVERT JUMPDEST PUSH8 0xFFFFFFFFFFFFFFFF DUP2 GT PUSH2 0xCE3 JUMPI PUSH1 0x5 SHL PUSH1 0x20 ADD SWAP1 JUMP JUMPDEST DUP2 PUSH1 0x1F DUP3 ADD SLT ISZERO PUSH2 0xC8 JUMPI DUP1 CALLDATALOAD SWAP2 PUSH2 0xD28 DUP4 PUSH2 0xCF9 JUMP JUMPDEST SWAP3 PUSH2 0xD36 PUSH1 0x40 MLOAD SWAP5 DUP6 PUSH2 0xCC1 JUMP JUMPDEST DUP1 DUP5 MSTORE PUSH1 0x20 SWAP3 DUP4 DUP1 DUP7 ADD SWAP3 PUSH1 0x5 SHL DUP3 ADD ADD SWAP3 DUP4 GT PUSH2 0xC8 JUMPI DUP4 ADD SWAP1 JUMPDEST DUP3 DUP3 LT PUSH2 0xD60 JUMPI POP POP POP POP SWAP1 JUMP JUMPDEST DUP2 CALLDATALOAD DUP2 MSTORE SWAP1 DUP4 ADD SWAP1 DUP4 ADD PUSH2 0xD52 JUMP JUMPDEST PUSH8 0xFFFFFFFFFFFFFFFF DUP2 GT PUSH2 0xCE3 JUMPI PUSH1 0x1F ADD PUSH1 0x1F NOT AND PUSH1 0x20 ADD SWAP1 JUMP JUMPDEST PUSH1 0x0 SLOAD PUSH1 0x1 PUSH1 0x1 PUSH1 0xA0 SHL SUB AND CALLER SUB PUSH2 0xD9F JUMPI JUMP JUMPDEST PUSH1 0x40 MLOAD PUSH4 0x118CDAA7 PUSH1 0xE0 SHL DUP2 MSTORE CALLER PUSH1 0x4 DUP3 ADD MSTORE PUSH1 0x24 SWAP1 REVERT JUMPDEST PUSH1 0x0 NOT DUP2 EQ PUSH2 0x6DE JUMPI PUSH1 0x1 ADD SWAP1 JUMP JUMPDEST DUP1 MLOAD ISZERO PUSH2 0xDD3 JUMPI PUSH1 0x20 ADD SWAP1 JUMP JUMPDEST PUSH4 0x4E487B71 PUSH1 0xE0 SHL PUSH1 0x0 MSTORE PUSH1 0x32 PUSH1 0x4 MSTORE PUSH1 0x24 PUSH1 0x0 REVERT JUMPDEST DUP1 MLOAD DUP3 LT ISZERO PUSH2 0xDD3 JUMPI PUSH1 0x20 SWAP2 PUSH1 0x5 SHL ADD ADD SWAP1 JUMP JUMPDEST SWAP1 DUP2 PUSH1 0x20 SWAP2 SUB SLT PUSH2 0xC8 JUMPI MLOAD DUP1 ISZERO ISZERO DUP2 SUB PUSH2 0xC8 JUMPI SWAP1 JUMP JUMPDEST SWAP1 DUP2 MLOAD DUP1 DUP3 MSTORE PUSH1 0x20 DUP1 DUP1 SWAP4 ADD SWAP4 ADD SWAP2 PUSH1 0x0 JUMPDEST DUP3 DUP2 LT PUSH2 0xE35 JUMPI POP POP POP POP SWAP1 JUMP JUMPDEST DUP4 MLOAD PUSH1 0x1 PUSH1 0x1 PUSH1 0xA0 SHL SUB AND DUP6 MSTORE SWAP4 DUP2 ADD SWAP4 SWAP3 DUP2 ADD SWAP3 PUSH1 0x1 ADD PUSH2 0xE27 JUMP JUMPDEST SWAP1 DUP2 MLOAD DUP1 DUP3 MSTORE PUSH1 0x20 DUP1 DUP1 SWAP4 ADD SWAP4 ADD SWAP2 PUSH1 0x0 JUMPDEST DUP3 DUP2 LT PUSH2 0xE72 JUMPI POP POP POP POP SWAP1 JUMP JUMPDEST DUP4 MLOAD DUP6 MSTORE SWAP4 DUP2 ADD SWAP4 SWAP3 DUP2 ADD SWAP3 PUSH1 0x1 ADD PUSH2 0xE64 JUMP INVALID LOG2 PUSH5 0x6970667358 0x22 SLT KECCAK256 0xCC 0xC8 0xF6 LT SWAP14 0x4A BLOCKHASH PUSH12 0x9C371060FC2CA78C83FAF2D8 SWAP15 PUSH25 0x8F605A9568ED5EA64E8264736F6C6343000814003300000000 "},"methodIdentifiers":{"emergencyWithdraw(address,uint256)":"95ccea67","getBalance(address)":"f8b2cb4f","owner()":"8da5cb5b","profitRecipient()":"7e2bad1e","receiveFlashLoan(address[],uint256[],uint256[],bytes)":"f04f2707","renounceOwnership()":"715018a6","setProfitRecipient(address)":"4795084f","transferOwnership(address)":"f2fde38b","vault()":"fbfa77cf"}}}}}